:020000040800F2
:1000000000000220D90E000815030008170300089D
:10001000190300081B0300081D030008000000006E
:100020000000000000000000000000001F030008A6
:100030002103000800000000230300082503000836
:10004000290F0008290F0008290F0008290F0008B0
:10005000290F0008290F0008290F0008290F0008A0
:10006000290F0008290F0008290F0008290F000890
:10007000290F0008290F0008290F0008290F000880
:10008000290F0008290F0008290F0008290F000870
:10009000290F0008290F0008290F0008290F000860
:1000A000290F0008290F0008290F0008290F000850
:1000B000290F0008290F0008290F0008290F000840
:1000C000290F0008290F0008290F0008290F000830
:1000D000290F0008290F0008290F0008290F000820
:1000E0002D030008290F0008290F0008290F000818
:1000F000290F0008290F0008290F0008290F000800
:10010000290F0008290F0008290F0008290F0008EF
:10011000290F0008290F0008290F0008290F0008DF
:10012000290F0008290F0008290F0008290F0008CF
:10013000290F0008290F0008290F0008290F0008BF
:10014000290F0008290F0008290F0008290F0008AF
:10015000290F0008290F0008290F0008290F00089F
:10016000290F0008290F0008290F0008290F00088F
:10017000290F0008290F0008290F0008290F00087F
:10018000290F0008290F0008290F0008290F00086F
:10019000290F000800000000290F0008290F00089F
:1001A000290F0008290F0008290F0008290F00084F
:1001B000290F0008290F0008290F0008290F00083F
:1001C000290F0008290F0008290F0008290F00082F
:0801D000290F0008290F0008A7
:1001D80010B5054C237833B9044B13B10448AFF379
:1001E80000800123237010BD0C00002000000000D7
:1001F800840F000808B5034B1BB103490348AFF34C
:10020800008008BD0000000010000020840F0008D6
:10021800FEE710B594B006AC38220021204600F065
:1002280080FE002301930293039304930593022312
:1002380006934FF48072099240220A920D930E930E
:1002480001220F92082210921193139312932046C1
:1002580000F082FA70B90F2301930323029300235D
:10026800039304930593022101A800F02BFD18B90C
:1002780014B010BDFFF7CCFFFFF7CAFF00B587B079
:1002880000F088F8FFF7C5FF114BDA6C42F0010265
:10029800DA64DB6C03F001030093009B01A90023DF
:1002A80001934B608B60CB600B612023019301238A
:1002B80002934FF0904000F021F920214FF0904038
:1002C80000F00CFA4FF4FA7000F086F8F5E700BF7A
:1002D8000010024000B583B00B4B1A6E42F00102C9
:1002E8001A661A6E02F001020092009A9A6D42F0A4
:1002F80080529A659B6D03F080530193019B00F037
:10030800F7F903B05DF804FB00100240FEE7FEE7D2
:10031800FEE7FEE7FEE770477047704708B500F054
:1003280049F808BD08B5002000F0C8FD08BD000068
:10033800034AD2F8883043F47003C2F88830704713
:1003480000ED00E0104B1B680BB90120704710B599
:1003580004464FF47A70B0FBF3F30C4A1068B0FB14
:10036800F3F000F0A3F868B90F2C01D901200AE0D6
:10037800002221464FF0FF3000F088F8044B1C6043
:10038800002000E0012010BD040000200000002033
:100398000800002010B5032000F066F80020FFF7E1
:1003A800D1FF10B10124204610BD0446FFF792FF8B
:1003B800F9E70000034A1368034909680B4413600E
:1003C800704700BF2800002004000020014B186877
:1003D800704700BF2800002038B50446FFF7F6FF35
:1003E8000546B4F1FF3F02D0044B1B681C44FFF7DD
:1003F800EDFF401BA042FAD338BD00BF0400002027
:10040800002808DB0901C9B200F1604000F561402D
:1004180080F80013704700F00F000901C9B2014BC2
:100428001954704714ED00E000B500F00700C0F162
:10043800070CBCF1040F28BF4FF0040C031D062B5A
:100448000FD9C31E4FF0FF3E0EFA0CF021EA00014F
:1004580099400EFA03FE22EA0E0241EA02005DF814
:1004680004FB0023EEE70000074AD36823F4E063A7
:100478001B041B0C000200F4E060034343F0BF635D
:1004880043F40033D360704700ED00E010B5044634
:10049800054BD868C0F30220FFF7C6FF0146204687
:1004A800FFF7AEFF10BD00BF00ED00E00138B0F16E
:1004B800807F0BD24FF0E0235861054AF02182F883
:1004C80023100020986107221A61704701207047A5
:1004D80000ED00E010B50368C3F3004203F01F030A
:1004E800012199405301044A9C580C4203D0995069
:1004F800436803B1984710BD14040140F0B583B0B8
:10050800002366E085685E000324B44025EA0405FC
:10051800CC68B4402C438460456825EA0C054C68D7
:10052800C4F300149C402C43446063E08C68012CA5
:1005380065D173E0DD08083550F8254003F0070C55
:100548004FEA8C0C4FF00F0E0EFA0CFE24EA0E0E3A
:100558000C6904FA0CF444EA0E0440F8254062E001
:10056800052400E0002404FA0EF42C430CF1020CDC
:10057800564D45F82C40564CA568D44325EA02064A
:100588004F6817F4801F01D042EA0506504DAE604F
:10059800ED6804EA05064F6817F4001F01D042EA27
:1005A80005064B4DEE606D6804EA05064F6817F4C2
:1005B800003F01D042EA0506454D6E602D682C408B
:1005C8004E6816F4803F01D042EA0504404A1460A0
:1005D80001330A6832FA03F476D04FF0010C0CFAB2
:1005E80003FC1CEA0202F3D04C6804F00304013C4B
:1005F800012C87D94C6804F00304032C96D0C468F6
:100608004FEA430E4FF0030C0CFA0EFC24EA0C0CD4
:100618008C6804FA0EF444EA0C04C4604C6804F0D4
:100628000304022C86D004684FEA430E4FF0030CF3
:100638000CFA0EFC24EA0C0C4C6804F0030404FACF
:100648000EF444EA0C0404604C6814F4403FBFD034
:10065800204C256E45F001052566246E04F0010442
:100668000194019C4FEA930C0CF10205174C54F8C5
:10067800255003F0030E4FEA8E0E0F2404FA0EF4F1
:1006880025EA0405B0F1904F3FF46CAF124CA0423C
:1006980012D004F58064A04210D004F58064A04212
:1006A8000ED004F58064A0420CD004F58064A0420A
:1006B8003FF456AF062456E7012454E7022452E7D4
:1006C800032450E704244EE703B0F0BD00000140C6
:1006D800000401400010024000040048436901EA98
:1006E800030221EA030141EA0241816170470000E7
:1006F800024A936843F48043936070470070004057
:10070800124BDA6802F00302DB68C3F30313013308
:10071800032A11D00E48B0FBF3F00C4BDB68C3F38F
:10072800062303FB00F0094BDB68C3F34163013385
:100738005B00B0FBF3F070470648B0FBF3F0034BE7
:10074800DB68C3F3062303FB00F0ECE7001002406C
:100758000024F40000366E01002800F04F8270B5C6
:1007680082B00446036813F0010F37D0A44A936897
:1007780003F00C03D26802F003020C2B23D0082BE1
:1007880023D06368B3F5803F4ED0B3F5A02F51D086
:100798009B4B1A6822F480321A601A6822F480226D
:1007A8001A606368002B52D0FFF710FE0546944B81
:1007B8001B6813F4003F11D1FFF708FE401B6428A3
:1007C800F5D9032023E2032AD9D18D4B1B6813F4F2
:1007D800003F03D06368002B00F01282236813F0F7
:1007E800020F5DD0864A936803F00C03D26802F0CA
:1007F80003020C2B3AD0042B3AD0E368002B75D0B7
:100808007F4A136843F480731360FFF7DFFD0546E2
:100818007B4B1B6813F4806F5FD1FFF7D7FD401B3C
:100828000228F5D90320F2E1754A136843F48033AE
:100838001360B6E703F18043A3F53C331A6842F42A
:1008480080221A601A6842F480321A60A9E7FFF71A
:10085800BDFD05466A4B1B6813F4003FBED0FFF789
:10086800B5FD401B6428F5D90320D0E1022AC2D186
:10087800634B1B6813F4806F03D0E368002B00F010
:10088800C1815F4A536823F0FE43216943EA01634B
:1008980053605C4B1868FFF755FD002840F0B481A1
:1008A800236813F0080F4CD063699BB3544AD2F8FD
:1008B800943043F00103C2F89430FFF787FD0546F2
:1008C8004F4BD3F8943013F0020F3AD1FFF77EFD67
:1008D800401B0228F4D9032099E1494A536823F0C0
:1008E800FE43216943EA01635360D9E7444A136828
:1008F80023F480731360FFF769FD0546404B1B68BE
:1009080013F4806FCCD0FFF761FD401B0228F5D9A6
:1009180003207CE13A4AD2F8943023F00103C2F86C
:100928009430FFF753FD0546354BD3F8943013F058
:10093800020F06D0FFF74AFD401B0228F4D9032016
:1009480065E1236813F0040F00F081802C4B9B6D48
:1009580013F0805F36D12A4B9A6D42F080529A6527
:100968009B6D03F080530193019B0125264B1B6867
:1009780013F4807F28D0A368012B39D0052B45D0EC
:100988001F4BD3F8902022F00102C3F89020D3F82F
:10099800902022F00402C3F89020A368002B43D0D3
:1009A800FFF714FD0646164BD3F8903013F0020FEC
:1009B8004CD1FFF70BFD801B41F288339842F2D9E6
:1009C800032024E10025D1E70F4A136843F480731C
:1009D8001360FFF7FBFC06460B4B1B6813F4807F84
:1009E800C9D1FFF7F3FC801B0228F5D903200EE1DB
:1009F800034AD2F8903043F00103C2F89030CCE7B4
:100A0800001002400800002000700040884BD3F816
:100A1800902042F00402C3F89020D3F8902042F0CE
:100A28000102C3F89020B8E7FFF7D0FC0646804BD8
:100A3800D3F8903013F0020F08D0FFF7C7FC801BE3
:100A480041F288339842F2D90320E0E0E5B92368FF
:100A580013F0200F35D0A369E3B1754AD2F8983066
:100A680043F00103C2F89830FFF7B0FC0546704B1D
:100A7800D3F8983013F0020F23D1FFF7A7FC401BDF
:100A88000228F4D90320C2E0694A936D23F0805309
:100A98009365DCE7664AD2F8983023F00103C2F880
:100AA8009830FFF793FC0546614BD3F8983013F064
:100AB800020F06D0FFF78AFC401B0228F4D9032056
:100AC800A5E0E369002B00F0A180594A926802F082
:100AD8000C020C2A64D0022B13D0554A136823F059
:100AE80080731360FFF772FC0446514B1B6813F0C8
:100AF800007F4ED0FFF76AFC001B0228F5D90320BF
:100B080085E04B4A136823F080731360FFF75EFC9F
:100B18000546474B1B6813F0007F06D0FFF756FCCD
:100B2800401B0228F5D9032071E0414AD3684149A6
:100B38001940236A606A013843EA0013A06A43EA4D
:100B48000023206B4008013843EA4053606B40089B
:100B5800013843EA4063E06A43EAC0631943D1605D
:100B6800136843F080731360D36843F08073D360D5
:100B7800FFF72CFC04462E4B1B6813F0007F06D1B0
:100B8800FFF724FC001B0228F5D903203FE00020D2
:100B98003DE0274AD168284B0B40D360002036E05F
:100BA800012B36D0224BDB6803F00301226A914205
:100BB80031D103F0F002616A0139B2EB011F2CD187
:100BC80003F4FE42A16AB2EB012F28D103F0784268
:100BD800E16AB2EBC16F24D103F4C001226B520861
:100BE800013AB1EB425F1ED103F0C063626B520859
:100BF800013AB3EB426F18D1002008E0012070479A
:100C0800012004E0012002E0012000E0002002B001
:100C180070BD0120FBE70120F9E70120F7E701207B
:100C2800F5E70120F3E70120F1E70120EFE700BF36
:100C3800001002400C809F01FCFFEEFE1E4B9B68DB
:100C480003F00C03042B33D01B4B9B6803F00C03FD
:100C5800082B2FD0184B9B6803F00C030C2B01D0EA
:100C680000207047144BDA6802F00302DB68C3F314
:100C780003130133032A11D01048B0FBF3F00E4BD5
:100C8800DB68C3F3062303FB00F00B4BDB68C3F3FD
:100C9800416301335B00B0FBF3F070470848B0FBD9
:100CA800F3F0054BDB68C3F3062303FB00F0ECE726
:100CB8000248704702487047001002400024F400C0
:100CC80000366E01002800F0E680F8B50C460546AF
:100CD800744B1B6803F00F038B420BD2714A1368E5
:100CE80023F00F030B431360136803F00F038B42C9
:100CF80040F0D3802E6816F001065FD06B68032B96
:100D08002FD0022B4DD0684B1B6813F4806F00F076
:100D1800C680FFF793FF654B98424DD9624A9368A6
:100D280023F0F00343F08003936080265E4A9368C3
:100D380023F0030369680B439360FFF747FB0746FB
:100D4800594B9B6803F00C036A68B3EB820F35D0EC
:100D5800FFF73CFBC01B41F288339842F0D90320CF
:100D680078E0514B1B6813F0007F01D1012071E03E
:100D7800FFF7C6FC4D4B98421AD94B4B9B6813F0B2
:100D8800F00F05D02E6816F00206CFD0AB688BB9ED
:100D9800454A936823F0F00343F08003936080266C
:100DA800C4E7414B1B6813F4003FB2D1012051E066
:100DB8000026BBE70026B9E70026B7E72B6813F043
:100DC800020F48D013F0040F04D0374A936843F455
:100DD800E06393602B6813F0080F06D0324A9368DB
:100DE80023F47C5343F4E06393602F4A936823F021
:100DF800F003A9680B4393602A4B1B6803F00F03A9
:100E0800A34230D82B6813F0040F06D0264A936803
:100E180023F4E063E9680B4393602B6813F0080F31
:100E280007D0214A936823F46053296943EAC10330
:100E38009360FFF703FF1C4B9B68C3F303131C4A23
:100E4800D35C03F01F03D8401A4B18601A4B18687C
:100E5800FFF778FAF8BD802ECED1134A936823F0B5
:100E6800F0039360C8E70F4A136823F00F03234386
:100E78001360FFF7ABFA06460A4B1B6803F00F0333
:100E8800A342BFD0FFF7A2FA801B41F288339842F1
:100E9800F2D90320DEE7012070470120DAE70120BC
:100EA800D8E700BF002002400010024000B4C4048C
:100EB8009C0F0008000000200800002008B5034B24
:100EC80003EBC000FFF706FB08BD00BF2C000020A5
:100ED8000D488546FFF72CFA0C480D490D4A0023AA
:100EE80002E0D458C4500433C4188C42F9D30A4AD7
:100EF8000A4C002301E013600432A242FBD300F045
:100F080019F8FFF7BBF9FEE70000022000000020F7
:100F18000C000020B40F00080C0000203400002052
:100F2800FEE702440346934200D1704703F8011BD1
:100F3800F9E7000070B50D4B0D4D5B1B9C100026AA
:100F4800A64209D100F01AF80A4D0B4B5B1B9C1006
:100F58000026A64205D170BD55F8043B98470136D6
:100F6800EEE755F8043B98470136F2E7AC0F000866
:100F7800AC0F0008AC0F0008B00F0008F8B500BFB0
:100F8800F8BC08BC9E467047F8B500BFF8BC08BC62
:040F98009E467047BA
:100F9C00000000000000000001020304060708091D
:040FAC00FD0100083B
:040FB000D90100085B
:0C0FB4000024F400010000001000000008
:0400000508000ED908
:00000001FF
