:020000040800F2
:1000000000000220592900082105000823050008E6
:100010002505000827050008290500080000000044
:100020000000000000000000000000002B05000898
:100030002D050008000000002F050008310500080C
:10004000A9290008A9290008A9290008A929000848
:10005000A9290008A9290008A9290008A929000838
:10006000A9290008A9290008A9290008A929000828
:10007000A9290008A9290008A9290008A929000818
:10008000A9290008A9290008A9290008A929000808
:10009000A9290008A9290008A9290008A9290008F8
:1000A000A9290008A9290008A9290008A9290008E8
:1000B0007D040008A9290008A9290008A929000829
:1000C000A9290008A9290008A9290008A9290008C8
:1000D000A9290008A9290008A9290008A9290008B8
:1000E00039050008A9290008A9290008A92900083C
:1000F000A9290008A9290008A9290008A929000898
:10010000A9290008A9290008A9290008A929000887
:10011000A9290008A9290008A9290008A929000877
:10012000A9290008A9290008A9290008A929000867
:10013000A9290008A9290008A9290008A929000857
:10014000A9290008A9290008A9290008A929000847
:10015000A9290008A9290008A9290008A929000837
:10016000A9290008A9290008A9290008A929000827
:10017000A9290008A9290008A9290008A929000817
:10018000A9290008A9290008A9290008A929000807
:10019000A929000800000000A9290008A9290008D1
:1001A000A9290008A9290008A9290008A9290008E7
:1001B000A9290008A9290008A9290008A9290008D7
:1001C000A9290008A9290008A9290008A9290008C7
:0801D000A9290008A929000873
:1001D80053B94AB9002908BF00281CBF4FF0FF31A6
:1001E8004FF0FF3000F00CB8ADF1080C6DE904CE0B
:1001F80002F0B6FCDDF804E0DDE9022304B0704744
:10020800704700BF10B5054C237833B9044B13B1C0
:100218000448AFF300800123237010BD10000020B4
:1002280000000000242E000808B5034B1BB1034949
:100238000348AFF3008008BD000000001400002050
:10024800242E0008FEE7000000B58DB01E481F4BA5
:1002580003604FF44033436000238360C36003614D
:10026800436104228261037743770122026280F8A6
:100278002430C362036380F83830C36380F84030A9
:1002880000F094F9D0B90023099309A90E4800F0A9
:100298002BFDA8B90E4B0193062302930023039369
:1002A8007F2204920422059206930DEB0201064870
:1002B80000F0C0FA30B90DB05DF804FBFFF7C2FFDB
:1002C800FFF7C0FFFFF7BEFF2C000020000400501E
:1002D8000200300410B59CB0044600211791189113
:1002E80019911A911B91542202A802F061FB22680D
:1002F800174B9A4201D01CB010BD4FF480330293C3
:100308004FF00043149302A801F0C8FBE8B9114B61
:10031800DA6C42F48042DA64DA6C02F480420092C9
:10032800009ADA6C42F00202DA64DB6C03F0020332
:100338000193019B02231793032318930023199316
:1003480017A9054800F08EFED5E7FFF77BFF00BF31
:10035800000400500010024000040048FEE710B5F9
:1003680094B006AC38220021204602F021FB00237D
:1003780001930293039304930593022306934FF486
:100388008072099240220A920D930E9301220F92D5
:1003980008221092119313931293204600F0A2FFA3
:1003A80070B90F230193032302930023039304934B
:1003B8000593022101A801F04BFA18B914B010BD39
:1003C800FFF7CCFFFFF7CAFF00B591B000F098FD2A
:1003D800FFF7C5FFFFF738FF00F060F800F01CF8E2
:1003E8000A4B1B78002BFBD00021084B1970084BD7
:1003F80000933C2201A802F0DBFA4FF0FF334022C1
:100408006946044802F098F9EAE700BF980000201E
:1004180064696E63E800002030B583B0134B9A6DB1
:1004280042F001029A659B6D03F001030193019B61
:100438000F4C4FF08043236044F26723636000252C
:10044800A56040F2E733E3602561A561204601F02D
:100458009BFE204601F0E0FC2A4629461C2000F0BD
:10046800C5FD1C2000F0D2FD03B030BD00100240D5
:100478009C00002008B5024801F01CFD08BD00BF23
:100488009C0000200368B3F1804F00D07047024BF6
:1004980001221A70FAE700BF9800002030B589B031
:1004A8001A4B9A6D42F400329A659A6D02F4003242
:1004B8000192019ADA6C42F00102DA64DB6C03F013
:1004C80001030293029B03A9002403944C608C60EF
:1004D800CC600C610C25039502230493012305933A
:1004E800072307934FF0904000F0BCFD0848094BE4
:1004F80003604FF4E13343608460C4600461456184
:100508008461C46102F0E6F909B030BD0010024010
:10051800E800002000440040FEE7FEE7FEE7FEE7B3
:10052800FEE770477047704708B500F0F9FC08BD52
:1005380008B5002002F002FA08BD0000034AD2F80C
:10054800883043F47003C2F88830704700ED00E04B
:1005580010B430300B0A9B0003F00C03C45801F0B0
:100568001F014FF01F0C0CFA01FC24EA0C0CC2F31B
:1005780084628A404CEA0202C2505DF8044B70471C
:1005880010B414304B0E9B0003F00403C458C1F39D
:1005980004514FF0070C0CFA01FC24EA0C0C8A40B9
:1005A8004CEA0202C2505DF8044B704730B583B084
:1005B80000230193002800F029810446C36D13B37A
:1005C80023689A6812F0005F05D09A6822F02042EA
:1005D80022F03F029A602268936813F0805F1FD16F
:1005E800936823F0104323F03F0343F08053936054
:1005F800874B1B689B09874AA2FB03239B0901338E
:100608005B00019309E0FFF765FE0023236684F889
:100618005830D5E7019B013B0193019B002BF9D191
:100628002268936813F0805F3CD1E36D43F01003B8
:10063800E365236E43F0010323660120936813F0FA
:10064800040300D00123E16D11F0100F40F0D780B2
:10065800002B40F0D480E36D23F4817343F0020350
:10066800E365936813F0010F3CD1B2F1A04F1BD0A2
:10067800694B9A4218D0694B996811F0010100D072
:100688000121674B9B6813F0010300D001230B4342
:100698006449896811F0010100D001210B4383F0FE
:1006A800010311E00020C9E74FF0A043996811F059
:1006B800010100D00121584B9B6813F0010300D0C1
:1006C80001230B4383F0010363B1B2F1A04F69D05A
:1006D800514B9A4264D0544963688A6822F47C1268
:1006E80013438B60627FE36B43EA4233E268134350
:1006F800A268134394F8242043EA0243012A53D002
:10070800E26A22B102F47872216B0A43134321682A
:10071800CD68464A2A401A43CA602268136923F002
:100728004063616B0B4313612268936813F00803FD
:1007380000D001232BBB237F94F83810490041EAED
:100748008331D36823F4804323F002030B43D3603F
:10075800236973B32268136943F4803313612268F1
:10076800D2F8C0306FF30D0321690B43C2F8C030D3
:1007780094F84030012B29D02268136923F0010333
:1007880013616369012B31D02268136B23F00F03C7
:100798001363E36D23F0030343F00103E36533E0E0
:1007A800234999E7224997E7A26A013A43EA424373
:1007B800A6E72268136923F4803313612268D2F80C
:1007C800C0306FF30D03C2F8C030D1E721680B6960
:1007D8006FF38A03626CA56C2A43E56C2A43256D86
:1007E8002A43134343F001030B61CAE721680B6BEB
:1007F80023F00F03226A013A13430B63C9E7E36D41
:1008080043F01003E365012003B030BD0120FBE78E
:1008180000000020632D3E05000100500004005038
:100828000005005000060050000700500740F0FF88
:1008380000030050F0B583B00023019390F85830BE
:10084800012B00F0428204460D46012380F85830FF
:100858000068836813F0040F09D0E36D43F02003A8
:10086800E3650120002384F8583003B0F0BD0A681E
:100878004968FFF76DFE2068836813F0040300D011
:100888000123866816F0080600D00126002B3ED109
:10089800002E3CD1AA68B2F1004F78D02968FFF742
:1008A8006FFE2268536923F0004353616969226827
:1008B800D368C3F3C1035B0099402869042873D047
:1008C800603252F82070AB4B3B402F6807F0F84C71
:1008D80041EA0C010B4343F0004342F820302368FF
:1008E8002869AA69603353F8201021F080710A43FF
:1008F80043F82020236829692A7F012A51D06033D0
:1009080053F8212022F00072324343F82120226854
:10091800936813F0010F16D12B68E868D2F8B0106D
:10092800C3F3120621EA060100F018069248F040C7
:100938000340C3F312030B43C2F8B030EA688F4B8D
:100948009A4200F099802B688D4A134200F0B781D3
:100958002268B2F1A04F00F050818A498A4200F023
:1009680049818949896801F0E070884DAB4200F0FF
:100978004681874DAB4200F04281864DAB4200F084
:100988007181854DAB4200F0858100206AE7002225
:100998002968FFF7F5FD2268536943F00043536166
:1009A80084E74FF00076AAE7136E116EC1F38461F5
:1009B8002B68C3F3120080BBC3F38463994234D01D
:1009C80021684B6E4A6EC2F384622B68C3F312002F
:1009D80080BBC3F384639A4234D021688B6E8A6EDD
:1009E800C2F384622B68C3F3120080BBC3F3846331
:1009F8009A4234D02168CB6ECA6EC2F384622B68E7
:100A0800C3F3120080BBC3F384639A427FF47FAFC1
:100A1800CB6E23F00043CB6679E793FAA3F313B1C7
:100A2800B3FA83F3CAE72023C8E7136E23F0004321
:100A38001366C5E793FAA3F313B1B3FA83F3CAE7CE
:100A48002023C8E74B6E23F000434B66C5E793FAB3
:100A5800A3F313B1B3FA83F3CAE72023C8E78B6E75
:100A680023F000438B66C5E793FAA3F313B1B3FAF7
:100A780083F3CAE72023C8E720682B68C3F312066C
:100A880026BB9A0E013202F01F02092A8CBF0022EF
:100A98000122002A52D046BB990E0131890601F085
:100AA800F84176BB9F0E013707F01F070122BA40B5
:100AB8001143AEBB9B0E013303F01F0303EB43034B
:100AC8001B051943AA68FFF75BFD3CE793FAA3F2FD
:100AD8004AB1B2FA82F2013202F01F02092A8CBF2F
:100AE80000220122D5E72022F5E793FAA3F131B1DC
:100AF800B1FA81F10131890601F0F841D1E72021ED
:100B0800F8E793FAA3F24AB1B2FA82F2013202F09C
:100B18001F024FF0010C0CFA02F2C9E72022F5E798
:100B280093FAA3F343B1B3FA83F3013303F01F033A
:100B380003EB43031B05C4E72023F6E776BB990EB6
:100B48000131890601F0F841A6BB9F0E013707F075
:100B58001F070122BA401143DEBB9B0E013303F08D
:100B68001F0303EB43031E3B1B0543F000731943AC
:100B7800A8E700BF00F0FF03FFFF070000007F4069
:100B8800000008800001005000070050000021C349
:100B98001000C090000052C7000084CB93FAA3F164
:100BA80031B1B1FA81F10131890601F0F841CBE7A1
:100BB8002021F8E793FAA3F24AB1B2FA82F201329D
:100BC80002F01F024FF0010C0CFA02F2C3E72022D8
:100BD800F5E793FAA3F35BB1B3FA83F3013303F0B8
:100BE8001F0303EB43031E3B1B0543F00073BEE7E3
:100BF8002023F3E701F50071B4E63549B2E611F4B4
:100C0800000F7FF4BAAEB2F1A04F04D0314B9A4234
:100C180001D0002026E6B2F1A04F19D02E4B9A42FF
:100C280014D02E4A40F40000936823F0E073184370
:100C380090602B4B1B689B092A4AA2FB03239B0944
:100C4800013303EB43039B00019306E0204AE9E7E5
:100C58001F4AE7E7019B013B0193019B002BF9D158
:100C68000020FFE511F0807F7FF48BAEB2F1A04F3A
:100C78000ED0194B9A4209D0184A40F080709368F8
:100C880023F0E073184390600020EBE5104AF4E786
:100C98000F4AF2E711F4800F13D10F4B9A4212D08A
:100CA800B2F1A04F09D00D4940F480038A6822F0C0
:100CB800E07213438B600020D4E50549F4E7002077
:100CC800D0E50020CEE50020CCE50220CDE500BF30
:100CD80000030050000600500001005000070050BB
:100CE80000000020632D3E0590F85820012A00F0EE
:100CF800D18010B49DB00346012280F8582000220C
:100D0800189219920068B0F1A04F46D0624A9042FA
:100D180046D000220192019A002A45D0926812F02A
:100D2800040200D00122846814F0040F40F0A2806D
:100D3800002A40F09F80B0F1A04F40D0574A90421F
:100D48003BD057480A68002A59D0826822F460428A
:100D58004C6893F838C044EA4C34224382601A68DD
:100D6800B2F1A04F2DD04D4CA2422AD04A4A9468E5
:100D780014F0010400D001244A4A926812F00102DA
:100D880000D001222243484CA46814F0010400D08A
:100D98000124224382F0010223E0404A0192BAE78B
:100DA80002F580720192B6E7DA6D42F02002DA6548
:100DB800002283F85820012064E03C48C2E73B4801
:100DC800C0E74FF0A042946814F0010400D0012459
:100DD800324A926812F0010200D00122224382F0C6
:100DE8000102002A52D0826822F4716222F00F02B6
:100DF8000C68896821430A43826000203FE08268CA
:100E080022F4604282601A68B2F1A04F19D02349D7
:100E18008A4216D0204A916811F0010100D00121C0
:100E2800204A926812F0010200D001220A431E49AA
:100E3800896811F0010100D001210A4382F0010202
:100E48000FE04FF0A042916811F0010100D001219C
:100E5800124A926812F0010200D001220A4382F07D
:100E68000102AAB1826822F4716222F00F02826044
:100E7800002004E0DA6D42F02002DA650120002249
:100E880083F858201DB05DF8044B70470020F6E742
:100E98000020F4E7022070470004005000010050D1
:100EA80000070050000500500006005000030050E5
:100EB800104B1B680BB90120704710B504464FF45E
:100EC8007A70B0FBF3F30C4A1068B0FBF3F000F053
:100ED800A1F868B90F2C01D901200AE000222146A7
:100EE8004FF0FF3000F082F8044B1C60002000E057
:100EF800012010BD04000020000000200800002090
:100F080010B5032000F060F80020FFF7D1FF10B102
:100F18000124204610BD044600F094F9F9E70000CA
:100F2800034A1368034909680B441360704700BFFC
:100F38007C01002004000020014B1868704700BFA6
:100F48007C010020002807DB00F01F024009012374
:100F58009340024A42F82030704700BF00E100E0A9
:100F6800002808DB0901C9B200F1604000F56140C2
:100F780080F80013704700F00F000901C9B2014B57
:100F88001954704714ED00E000B500F00700C0F1F7
:100F9800070CBCF1040F28BF4FF0040C031D062BEF
:100FA8000FD9C31E4FF0FF3E0EFA0CF021EA0001E4
:100FB80099400EFA03FE22EA0E0241EA02005DF8A9
:100FC80004FB0023EEE70000074AD36823F4E0633C
:100FD8001B041B0C000200F4E060034343F0BF63F2
:100FE80043F40033D360704700ED00E010B50446C9
:100FF800054BD868C0F30220FFF7C6FF014620461C
:10100800FFF7AEFF10BD00BF00ED00E008B5FFF729
:1010180099FF08BD0138B0F1807F0BD24FF0E02373
:101028005861054AF02182F82310002098610722B0
:101038001A6170470120704700ED00E010B50368A1
:10104800C3F3004203F01F03012199405301044AEE
:101058009C580C4203D09950436803B1984710BD7F
:1010680014040140F0B583B0002366E085685E0093
:101078000324B44025EA0405CC68B4402C438460BA
:10108800456825EA0C054C68C4F300149C402C43C1
:10109800446063E08C68012C65D173E0DD08083595
:1010A80050F8254003F0070C4FEA8C0C4FF00F0E58
:1010B8000EFA0CFE24EA0E0E0C6904FA0CF444EA4B
:1010C8000E0440F8254062E0052400E0002404FAFC
:1010D8000EF42C430CF1020C564D45F82C40564C9E
:1010E800A568D44325EA02064F6817F4801F01D08B
:1010F80042EA0506504DAE60ED6804EA05064F6801
:1011080017F4001F01D042EA05064B4DEE606D68EA
:1011180004EA05064F6817F4003F01D042EA0506C5
:10112800454D6E602D682C404E6816F4803F01D006
:1011380042EA0504404A146001330A6832FA03F4AB
:1011480076D04FF0010C0CFA03FC1CEA0202F3D033
:101158004C6804F00304013C012C87D94C6804F066
:101168000304032C96D0C4684FEA430E4FF0030CD7
:101178000CFA0EFC24EA0C0C8C6804FA0EF444EA0F
:101188000C04C4604C6804F00304022C86D0046884
:101198004FEA430E4FF0030C0CFA0EFC24EA0C0C39
:1011A8004C6804F0030404FA0EF444EA0C040460E6
:1011B8004C6814F4403FBFD0204C256E45F0010523
:1011C8002566246E04F001040194019C4FEA930CF7
:1011D8000CF10205174C54F8255003F0030E4FEAA2
:1011E8008E0E0F2404FA0EF425EA0405B0F1904F90
:1011F8003FF46CAF124CA04212D004F58064A042B8
:1012080010D004F58064A0420ED004F58064A0429A
:101218000CD004F58064A0423FF456AF062456E78C
:10122800012454E7022452E7032450E704244EE73C
:1012380003B0F0BD0000014000040140001002406E
:101248000004004800B583B00B4B1A6E42F001024F
:101258001A661A6E02F001020092009A9A6D42F024
:1012680080529A659B6D03F080530193019B00F0B7
:1012780005F803B05DF804FB00100240024A9368C9
:1012880043F480439360704700700040124BDA6863
:1012980002F00302DB68C3F303130133032A11D0FE
:1012A8000E48B0FBF3F00C4BDB68C3F3062303FBDB
:1012B80000F0094BDB68C3F3416301335B00B0FB0B
:1012C800F3F070470648B0FBF3F0034BDB68C3F359
:1012D800062303FB00F0ECE7001002400024F400B2
:1012E80000366E01002800F04F8270B582B00446C7
:1012F800036813F0010F37D0A44A936803F00C0376
:10130800D26802F003020C2B23D0082B23D0636889
:10131800B3F5803F4ED0B3F5A02F51D09B4B1A6840
:1013280022F480321A601A6822F480221A606368F4
:10133800002B52D0FFF700FE0546944B1B6813F4B0
:10134800003F11D1FFF7F8FD401B6428F5D90320B1
:1013580023E2032AD9D18D4B1B6813F4003F03D035
:101368006368002B00F01282236813F0020F5DD02F
:10137800864A936803F00C03D26802F003020C2B30
:101388003AD0042B3AD0E368002B75D07F4A136813
:1013980043F480731360FFF7CFFD05467B4B1B6852
:1013A80013F4806F5FD1FFF7C7FD401B0228F5D902
:1013B8000320F2E1754A136843F480331360B6E7FB
:1013C80003F18043A3F53C331A6842F480221A6083
:1013D8001A6842F480321A60A9E7FFF7ADFD0546A6
:1013E8006A4B1B6813F4003FBED0FFF7A5FD401BF6
:1013F8006428F5D90320D0E1022AC2D1634B1B68C7
:1014080013F4806F03D0E368002B00F0C1815F4ABA
:10141800536823F0FE43216943EA016353605C4B40
:101428001868FFF745FD002840F0B481236813F0E1
:10143800080F4CD063699BB3544AD2F8943043F0F8
:101448000103C2F89430FFF777FD05464F4BD3F8F8
:10145800943013F0020F3AD1FFF76EFD401B0228BB
:10146800F4D9032099E1494A536823F0FE432169DE
:1014780043EA01635360D9E7444A136823F480734D
:101488001360FFF759FD0546404B1B6813F4806F46
:10149800CCD0FFF751FD401B0228F5D903207CE191
:1014A8003A4AD2F8943023F00103C2F89430FFF797
:1014B80043FD0546354BD3F8943013F0020F06D0A0
:1014C800FFF73AFD401B0228F4D9032065E12368A1
:1014D80013F0040F00F081802C4B9B6D13F0805F9C
:1014E80036D12A4B9A6D42F080529A659B6D03F073
:1014F80080530193019B0125264B1B6813F4807FC1
:1015080028D0A368012B39D0052B45D01F4BD3F821
:10151800902022F00102C3F89020D3F8902022F006
:101528000402C3F89020A368002B43D0FFF704FD02
:101538000646164BD3F8903013F0020F4CD1FFF744
:10154800FBFC801B41F288339842F2D9032024E146
:101558000025D1E70F4A136843F480731360FFF73F
:10156800EBFC06460B4B1B6813F4807FC9D1FFF7D1
:10157800E3FC801B0228F5D903200EE1034AD2F8C8
:10158800903043F00103C2F89030CCE700100240DD
:101598000800002000700040884BD3F8902042F0EB
:1015A8000402C3F89020D3F8902042F00102C3F857
:1015B8009020B8E7FFF7C0FC0646804BD3F8903080
:1015C80013F0020F08D0FFF7B7FC801B41F28833F5
:1015D8009842F2D90320E0E0E5B9236813F0200F20
:1015E80035D0A369E3B1754AD2F8983043F00103C6
:1015F800C2F89830FFF7A0FC0546704BD3F8983036
:1016080013F0020F23D1FFF797FC401B0228F4D9EF
:101618000320C2E0694A936D23F080539365DCE7A9
:10162800664AD2F8983023F00103C2F89830FFF7E1
:1016380083FC0546614BD3F8983013F0020F06D0AF
:10164800FFF77AFC401B0228F4D90320A5E0E369E0
:10165800002B00F0A180594A926802F00C020C2A73
:1016680064D0022B13D0554A136823F0807313609B
:10167800FFF762FC0446514B1B6813F0007F4ED005
:10168800FFF75AFC001B0228F5D9032085E04B4AD6
:10169800136823F080731360FFF74EFC0546474B31
:1016A8001B6813F0007F06D0FFF746FC401B02289A
:1016B800F5D9032071E0414AD36841491940236AAA
:1016C800606A013843EA0013A06A43EA0023206BEA
:1016D8004008013843EA4053606B4008013843EA48
:1016E8004063E06A43EAC0631943D160136843F07A
:1016F80080731360D36843F08073D360FFF71CFCDA
:1017080004462E4B1B6813F0007F06D1FFF714FC2C
:10171800001B0228F5D903203FE000203DE0274ABE
:10172800D168284B0B40D360002036E0012B36D01F
:10173800224BDB6803F00301226A914231D103F0A6
:10174800F002616A0139B2EB011F2CD103F4FE42A9
:10175800A16AB2EB012F28D103F07842E16AB2EB1B
:10176800C16F24D103F4C001226B5208013AB1EBD6
:10177800425F1ED103F0C063626B5208013AB3EBBB
:10178800426F18D1002008E001207047012004E0D2
:10179800012002E0012000E0002002B070BD01201D
:1017A800FBE70120F9E70120F7E70120F5E7012031
:1017B800F3E70120F1E70120EFE700BF0010024046
:1017C8000C809F01FCFFEEFE1E4B9B6803F00C0390
:1017D800042B33D01B4B9B6803F00C03082B2FD032
:1017E800184B9B6803F00C030C2B01D000207047AA
:1017F800144BDA6802F00302DB68C3F30313013306
:10180800032A11D01048B0FBF3F00E4BDB68C3F38A
:10181800062303FB00F00B4BDB68C3F34163013382
:101828005B00B0FBF3F070470848B0FBF3F0054BE2
:10183800DB68C3F3062303FB00F0ECE702487047BC
:1018480002487047001002400024F40000366E0180
:10185800002800F0E680F8B50C460546744B1B6876
:1018680003F00F038B420BD2714A136823F00F0366
:101878000B431360136803F00F038B4240F0D380CF
:101888002E6816F001065FD06B68032B2FD0022B51
:101898004DD0684B1B6813F4806F00F0C680FFF7CB
:1018A80093FF654B98424DD9624A936823F0F00341
:1018B80043F08003936080265E4A936823F0030315
:1018C80069680B439360FFF737FB0746594B9B68E2
:1018D80003F00C036A68B3EB820F35D0FFF72CFBDB
:1018E800C01B41F288339842F0D9032078E0514B6D
:1018F8001B6813F0007F01D1012071E0FFF7C6FCDF
:101908004D4B98421AD94B4B9B6813F0F00F05D0FA
:101918002E6816F00206CFD0AB688BB9454A93689B
:1019280023F0F00343F0800393608026C4E7414B23
:101938001B6813F4003FB2D1012051E00026BBE739
:101948000026B9E70026B7E72B6813F0020F48D046
:1019580013F0040F04D0374A936843F4E0639360AC
:101968002B6813F0080F06D0324A936823F47C538F
:1019780043F4E06393602F4A936823F0F003A96867
:101988000B4393602A4B1B6803F00F03A34230D824
:101998002B6813F0040F06D0264A936823F4E063FB
:1019A800E9680B4393602B6813F0080F07D0214AAE
:1019B800936823F46053296943EAC1039360FFF7EE
:1019C80003FF1C4B9B68C3F303131C4AD35C03F04F
:1019D8001F03D8401A4B18601A4B1868FFF768FAAB
:1019E800F8BD802ECED1134A936823F0F00393609C
:1019F800C8E70F4A136823F00F0323431360FFF768
:101A08009BFA06460A4B1B6803F00F03A342BFD09C
:101A1800FFF792FA801B41F288339842F2D90320EB
:101A2800DEE7012070470120DAE70120D8E700BF90
:101A3800002002400010024000B4C404442E0008F4
:101A48000000002008000020014B1868704700BF04
:101A58000000002008B5FFF7F7FF054B9B68C3F3AC
:101A68000223044AD35C03F01F03D84008BD00BF1B
:101A7800001002403C2E000808B5FFF7E5FF054BB3
:101A88009B68C3F3C223044AD35C03F01F03D84006
:101A980008BD00BF001002403C2E0008F0B583B01E
:101AA8000446036813F4002F6ED0354B9B6D13F07A
:101AB800805F1ED1324B9A6D42F080529A659B6DC1
:101AC80003F080530193019B01262E4A136843F4C7
:101AD80080731360FFF730FA05462A4B1B6813F42E
:101AE800807F08D1FFF728FA401B0228F5D9032583
:101AF80002E00026E9E7002545BB214BD3F89030EA
:101B080013F4407318D0226D9A4212D01C4AD2F8AE
:101B1800903023F44073D2F8901041F48031C2F829
:101B28009010D2F8901021F48031C2F89010C2F8C9
:101B3800903013F0010F10D145B9114AD2F8903006
:101B480023F44073216D0B43C2F89030EEB10C4A78
:101B5800936D23F08053936517E0FFF7EDF907467F
:101B6800074BD3F8903013F0020FE5D1FFF7E4F9F3
:101B7800C01B41F288339842F2D90325DCE700BF45
:101B880000100240007000400025236813F0010F88
:101B980008D09F4AD2F8883023F0030361680B43CA
:101BA800C2F88830236813F0020F08D0984AD2F898
:101BB800883023F00C03A1680B43C2F888302368EF
:101BC80013F0040F08D0924AD2F8883023F030037B
:101BD800E1680B43C2F88830236813F0080F08D077
:101BE8008B4AD2F8883023F0C00321690B43C2F82E
:101BF8008830236813F0100F08D0854AD2F888304F
:101C080023F4407361690B43C2F88830236813F0EA
:101C1800200F08D07E4AD2F8883023F44063A169A7
:101C28000B43C2F88830236813F0400F08D0784A75
:101C3800D2F8883023F44053E1690B43C2F8883066
:101C4800236813F0800F08D0714AD2F8883023F443
:101C58004043216A0B43C2F88830236813F4807F1D
:101C680008D06B4AD2F8883023F44033616A0B43BA
:101C7800C2F88830236813F4003F08D0644AD2F8C9
:101C88009C3023F00303A16A0B43C2F89C302368FD
:101C980013F4007F08D05E4AD2F8883023F440233A
:101CA800E16A0B43C2F88830236813F4806F0CD0C4
:101CB800574AD2F8883023F44013216B0B43C2F8FB
:101CC8008830236BB3F5801F79D0236813F4006F35
:101CD8000CD04F4AD2F8883023F44003616B0B4391
:101CE800C2F88830636BB3F5800F6DD0236813F4A6
:101CF800805F0CD0464AD2F8883023F04073A16B3D
:101D08000B43C2F88830A36BB3F1807F61D023689E
:101D180013F4005F0CD03E4AD2F8883023F04063B9
:101D2800E16B0B43C2F88830E36BB3F1006F55D019
:101D3800236813F4804F0CD0354AD2F8883023F04A
:101D48004063216C0B43C2F88830236CB3F1006FF9
:101D580049D0236813F4004F0CD02D4AD2F88830AC
:101D680023F04053616C0B43C2F88830636CB3F1C5
:101D7800805F3DD0236813F4803F0CD0244AD2F80A
:101D8800883023F04043A16C0B43C2F88830A36C21
:101D9800B3F1804F31D0236813F4802F0CD01C4A44
:101DA800D2F89C3023F44013E16C0B43C2F89C300A
:101DB800E36CB3F5001F25D0284603B0F0BDD36807
:101DC80043F48013D36080E7D36843F48013D3606F
:101DD8008CE7D36843F48013D36098E7D36843F45F
:101DE8008013D360A4E7D36843F48013D360B0E7CB
:101DF800D36843F48033D360BCE7D36843F48033BB
:101E0800D360C8E7D36843F48013D360D4E700BF36
:101E1800001002407047000090F83D30012B3AD185
:101E2800022380F83D300268D36843F00103D36091
:101E380003681C4A934220D0B3F1804F1DD0A2F50D
:101E48009432934219D002F58062934215D002F57C
:101E58008062934211D002F5943293420DD002F57C
:101E68004062934209D002F58052934205D01A6825
:101E780042F001021A600020704799680A4A0A4035
:101E8800062A0AD0B2F5803F09D01A6842F001024A
:101E98001A6000207047012070470020704700201A
:101EA800704700BF002C01400700010070477047D1
:101EB8007047704770B505460368DE681C6914F002
:101EC800020F10D016F0020F0DD06FF002021A6147
:101ED8000123037703689B6913F0030F7CD0FFF796
:101EE800E6FF00232B7714F0040F12D016F0040F2E
:101EF8000FD02B686FF004021A6102232B772B682E
:101F08009B6913F4407F6DD02846FFF7D0FF00236C
:101F18002B7714F0080F12D016F0080F0FD02B688B
:101F28006FF008021A6104232B772B68DB6913F022
:101F3800030F5ED02846FFF7BAFF00232B7714F073
:101F4800100F12D016F0100F0FD02B686FF0100280
:101F58001A6108232B772B68DB6913F4407F4FD075
:101F68002846FFF7A4FF00232B7714F0010F02D0B7
:101F780016F0010F4BD114F4025F02D016F0800F57
:101F88004DD114F4807F02D016F0800F4FD114F099
:101F9800400F02D016F0400F51D114F0200F02D09C
:101FA80016F0200F53D114F4801F02D016F4801FAE
:101FB80055D114F4001F02D016F4001F57D114F4A1
:101FC800800F02D016F4800F59D114F4000F02D0FC
:101FD80016F4000F5BD170BDFFF768FF2846FFF7C6
:101FE80067FF7EE72846FFF761FF2846FFF760FF97
:101FF8008DE72846FFF75AFF2846FFF759FF9CE769
:102008002846FFF753FF2846FFF752FFABE72B6838
:102018006FF001021A612846FEF734FAABE72B6825
:102028006FF402521A61284600F0DFF8A9E72B681E
:102038006FF480721A61284600F0D8F8A7E72B6879
:102048006FF040021A612846FFF733FFA5E72B68B7
:102058006FF020021A61284600F0C6F8A3E72B6843
:102068006FF480121A61284600F0C1F8A1E72B68C6
:102078006FF400121A61284600F0BAF89FE72B683F
:102088006FF480021A61284600F0B3F89DE72B68C8
:102098006FF400021A61284600F0ACF89BE70000D4
:1020A8000368384A904216D0B0F1804F13D0A2F599
:1020B800943290420FD002F5806290420BD002F524
:1020C8008062904207D002F59432904203D002F524
:1020D800E052904203D123F070034A681343294A1F
:1020E800904222D0B0F1804F1FD0A2F59432904296
:1020F8001BD002F58062904217D002F580629042B0
:1021080013D002F5943290420FD002F5406290420B
:102118000BD002F58062904207D002F580629042AF
:1021280003D002F50062904203D123F44073CA68D9
:10213800134323F080034A6913438A68C2620A681A
:102148008262104A904213D002F5006290420FD08A
:1021580002F5406290420BD002F58062904207D0AF
:1021680002F58062904203D002F50062904201D1EC
:102178000A690263026842F00402026001224261B5
:1021880003607047002C014060B310B5044690F816
:102198003D3013B3022384F83D30214651F8040B37
:1021A800FFF77EFF012384F8483084F83E3084F836
:1021B8003F3084F8403084F8413084F8423084F865
:1021C800433084F8443084F8453084F8463084F845
:1021D800473084F83D30002010BD80F83C30FFF7D0
:1021E80019FED7E70120704770477047704770475E
:1021F800704770477047026852E8003F23F49073B5
:1022080042E800310029F6D1026802F1080353E8D8
:10221800003F23F0805323F00103083242E80031E5
:102228000029F1D1C36E012B06D02023C0F88C30D1
:102238000023C36643677047026852E8003F23F0F3
:10224800100342E800310029F6D1EEE7704700009C
:1022580070B5044683680269134342691343C2692F
:10226800134301680868954A02401A430A602268C5
:10227800536823F44053E1680B435360A169226813
:102288008F4B9A4201D0236A1943936823F06E4317
:1022980023F430630B4393602268D36A23F00F035F
:1022A800616A0B43D3622368864A934210D0864AF8
:1022B800934221D0854A93424DD0854A93425DD0BE
:1022C800844A93426CD07E4A93427ED010222BE0FF
:1022D80002F55842D2F8882002F00302032A09D8EE
:1022E800DFE802F00204880601221DE004221BE058
:1022F800082219E0102217E002F5E632D2F8882009
:1023080002F00C020C2A0ED8DFE802F0070D0D0DC2
:10231800090D0D0D760D0D0D0B00002204E00422B1
:1023280002E0082200E0102265498B4200F0868016
:10233800E069B0F5004F00F0D580082A00F2358139
:10234800DFE812F003011C01010133011F01330111
:1023580033013301220102F5E432D2F8882002F079
:102368003002202A4AD005D8002A49D0102A49D15B
:102378000422D9E7302A47D10822D5E702F5E2320C
:10238800D2F8882002F0C002802A3FD004D8FAB3DD
:10239800402A3FD10422C7E7C02A3DD10822C3E71B
:1023A80002F5E032D2F8882002F44072B2F5007FDC
:1023B80034D005D8A2B3B2F5807F33D10422B3E775
:1023C800B2F5407F30D10822AEE702F5C832D2F824
:1023D800882002F44062B2F5006F27D005D83AB3DE
:1023E800B2F5806F26D104229EE7B2F5406F23D163
:1023F800082299E7022297E7022295E7022293E74B
:10240800002291E710228FE710228DE702228BE746
:10241800002289E7102287E7102285E7022283E756
:10242800002281E710227FE710227DE702227BE766
:10243800002279E7102277E7102275E7082A00F2D0
:10244800A680DFE802F008A410A40DA4A4A4050047
:102458004FF4004008E0FFF7FDFA28B90020A5E096
:10246800FFF7B2F9F9E71C48626A1C4B33F81220EF
:10247800B0FBF2F3656805EB4501994200F28980EB
:10248800B3EB053F00F28780002633463146FDF75F
:102498009FFE090241EA106100026B08C0182A4633
:1024A800334641F10001FDF793FEA0F540720C4B55
:1024B8009A4272D82368D860304677E0F369FFCF34
:1024C80000800040003801400044004000480040BF
:1024D800004C0040005000400024F400542E000836
:1024E800FFFC0F00082A5AD8DFE802F00727055931
:1024F8002A5959590B00344803E0FFF7ABFA002872
:102508004FD0626A314B33F81230B0FBF3F0626897
:10251800530803EB4003B3FBF2F3A3F110014FF6AA
:10252800EF7291423FD89AB222F00F02C3F34203EE
:1025380013432268D360002038E0FFF79DFADEE7F6
:10254800FFF742F9DBE7204802E0FFF783FAB0B370
:10255800626A1E4B33F81230B0FBF3F0636800EB8D
:102568005300B0FBF3F0A0F110024FF6EF739A425C
:1025780027D8236880B2D860002017E0FFF77CFADC
:10258800E5E7FFF721F9E2E74FF40040E0E7012033
:102598000CE001200AE0012008E0012006E001200B
:1025A80004E0002002E0012000E001200123A4F85B
:1025B8006A30A4F8683000236367A36770BD002001
:1025C800F4E70120F2E700BF0024F400542E0008CD
:1025D800836A13F0080F06D00268536823F4004397
:1025E800816B0B435360836A13F0010F06D00268B6
:1025F800536823F40033C16A0B435360836A13F0B2
:10260800020F06D00268536823F48033016B0B4332
:102618005360836A13F0040F06D00268536823F4EA
:102628008023416B0B435360836A13F0100F06D06D
:102638000268936823F48053C16B0B439360836AE9
:1026480013F0200F06D00268936823F40053016C3E
:102658000B439360836A13F0400F0AD002685368F3
:1026680023F48013416C0B435360436CB3F5801F14
:102678000BD0836A13F0800F06D00268536823F4E6
:102688000023C16C0B43536070470268536823F4FE
:10269800C003816C0B435360EBE72DE9F843054613
:1026A8000E4617469946DDF820802B68DC6936EA25
:1026B80004040CBF01240024BC4236D1B8F1FF3F0A
:1026C800F3D0FEF739FCA0EB0900404530D8B8F14B
:1026D800000F2FD02B681A6812F0040FE5D0802E57
:1026E800E3D0402EE1D0DA6912F0080F11D1DA698F
:1026F80012F4006FD9D04FF400621A622846FFF72F
:102708007AFD2023C5F89030002385F88430032013
:102718000CE008241C622846FFF76DFDC5F89040C0
:10272800002385F88430012000E00020BDE8F8830C
:102738000320FBE70320F9E72DE9F04182B01E46AC
:10274800D0F88830202B5AD104460D4690460029EF
:1027580059D00AB9012053E00023C0F89030212352
:10276800C0F88830FEF7E8FB0746A4F85480A4F8C0
:102778005680A368B3F5805F02D04FF0000816E0DA
:10278800236943B34FF0000811E02023C4F88830D0
:10279800032035E038F8023B2268C3F3080393624C
:1027A800B4F8562092B2013A92B2A4F85620B4F87E
:1027B80056309BB293B100963B46002280212046BA
:1027C800FFF76BFF0028E0D1002DE3D015F8012BAF
:1027D80023689A62E4E7A8460025E8E700963B46A6
:1027E800002240212046FFF758FF18B92023C4F8DB
:1027F800883005E02023C4F88830032000E0022058
:1028080002B0BDE8F0810120FAE730B583B0044694
:102818000023C0F89030FEF78FFB05462268126847
:1028280012F0080F10D123681B6813F0040F28D189
:102838002023C4F88830C4F88C300020E066206774
:1028480084F8840003B030BD6FF07E4300930346E4
:1028580000224FF400112046FFF71FFF0028E2D0A6
:10286800226852E8003F23F0800342E80031002943
:10287800F6D12023C4F88830002384F8843003205C
:10288800E0E76FF07E4300932B4600224FF480016F
:102898002046FFF702FF0028CAD0226852E8003F0E
:1028A80023F4907342E800310029F6D1226802F13E
:1028B800080353E8003F23F00103083242E80031DF
:1028C8000029F3D12023C4F88C30002384F8843005
:1028D8000320B7E778B310B50446D0F888300BB3B7
:1028E8002423C4F888302268136823F00103136096
:1028F800A36AE3B92046FFF7ABFC012811D0226890
:10290800536823F4904353602268936823F02A03A2
:1029180093602268136843F0010313602046FFF7B1
:1029280074FF10BD80F88430FFF790FCD8E720468C
:10293800FFF74EFEDEE701207047000008B5034BA5
:1029480003EBC000FEF77AFB08BD00BF8001002042
:102958000D488546FDF7F2FD0C480D490D4A002348
:1029680002E0D458C4500433C4188C42F9D30A4A3C
:102978000A4C002301E013600432A242FBD300F0AA
:1029880065F8FDF721FDFEE70000022000000020A9
:1029980010000020802E00081000002020030020D6
:1029A800FEE70000002301461A46184600F08EB8DC
:1029B800830730B546D08418844604E003F8011B29
:1029C8009D0704D09C46A4456346F7D130BD013A23
:1029D8000244A2EB0C02032A29D9CCB204EB04244A
:1029E8000F2A04EB04442FD9A2F1100C2CF00F0C81
:1029F80003F11005AC44C3E90044C3E902441033B1
:102A08006345F8D112F00C0F02F00F0E18D02EF01B
:102A1800030C9C44AEF104051A4642F8044B624587
:102A2800FBD125F0030404330EF003022344002AEB
:102A3800CCD0C9B21A4403F8011B9342FBD130BD74
:102A48007246F4E70346C6E79646E0E770B50F4BD3
:102A58000F4DAB42A3EB050607D0B610002455F87E
:102A6800043B01349847A642F9D800F0D7F9094D3C
:102A7800094B5E1BAB424FEAA60606D0002455F868
:102A8800043B01349847A642F9D870BD742E00085B
:102A9800742E0008742E00087C2E000838B5074DE7
:102AA800074C2C1BA41005D0013C55F8043D984751
:102AB800002CF9D1BDE8384000F0B6B9802E0008E6
:102AC8007C2E0008704700BF704700BF2DE9F8430F
:102AD8001B4D0646286898460F469146FFF7F2FFB9
:102AE800184B1C681CB3286865681F2D22DC4EB97A
:102AF8006B1C0235636044F82570FFF7E5FF002082
:102B0800BDE8F88304EB85010123C1F88890D4F867
:102B18008821AB401A43022EC4F88821C1F80881E5
:102B2800E6D1D4F88C211A43C4F88C21E0E7064C8E
:102B38001C60D8E7FFF7C8FF4FF0FF30E0E700BFA1
:102B48000C0000201C0300208C010020024B13B154
:102B58000248FFF727BF704700000000A52A0008B9
:102B68002DE9F0478C468E46089E154604461946C0
:102B7800002B40F0D080724547D9B2FA82F74FB1A6
:102B8800C7F120030EFA07FC20FA03F3BD4043EA1D
:102B98000C0CBC404FEA154EA8B2BCFBFEF8230C47
:102BA8000EFB18CC08FB00F943EA0C43994528D9D9
:102BB800EB1808F1FF3204D2994502D9A8F10202B4
:102BC8002B44A3EB0903A4B2B3FBFEFC0EFB1C339E
:102BD8000CFB00F044EA0344A04214D92C190CF170
:102BE800FF3304D2A04202D9ACF102032C44241AC8
:102BF80043EA02401EB1FC40002334607360BDE824
:102C0800F0874246DDE76346F1E7002A79D0B2FA59
:102C180082F3002B3FD01946C1F1200302FA01F5D7
:102C28002EFA03F20EFA01FE20FA03F343EA0E032A
:102C38004FEA154E00FA01F4B2FBFEFCAFB20EFBF0
:102C48001C201A0C0CFB07F842EA004290455AD99E
:102C5800AA180CF1FF3004D2904502D9ACF1020059
:102C68002A44A2EB08029BB2B2FBFEFC0EFB1C221C
:102C78000CFB07F743EA02439F4246D9EB180CF1D5
:102C8800FF3204D29F4202D9ACF102022B44DB1B73
:102C980042EA004202E0AEEB020301224FEA154E7F
:102CA800AFB2B3FBFEFC200C0EFB1C330CFB07F889
:102CB80040EA034398452AD9EB180CF1FF3004D2B7
:102CC800984502D9ACF102002B44A3EB0803A4B247
:102CD800B3FBFEFC0EFB1C330CFB07F744EA034472
:102CE800A74216D92C190CF1FF3304D2A74202D9F6
:102CF800ACF102032C44E41B43EA00400F461146A2
:102D080078E71F2188E76046ABE76246BFE7604681
:102D1800DBE76346EFE7734506D916B90021084695
:102D28006DE7C6E9000EF9E7B3FA83F787B973458B
:102D380001D3824207D8841A6EEB030301209C4614
:102D48001EB900215BE73846FAE7C6E9004CF8E708
:102D5800C7F1200CBB4022FA0CF51D4320FA0CF1F8
:102D68002EFA0CF30EFA07FE41EA0E014FEA154956
:102D780000FA07F4B3FBF9F81FFA85FE09FB1830CF
:102D88000B0C08FB0EFA43EA00439A4502FA07F2D5
:102D980040D9EB1808F1FF3004D29A4502D9A8F1BE
:102DA80002002B44A3EB0A0389B2B3FBF9F809FB31
:102DB800183308FB0EFE41EA03418E452CD96918E9
:102DC80008F1FF3304D28E4502D9A8F10203294441
:102DD80043EA0040A0FB0298A1EB0E014145CE4614
:102DE800434602D306D14C4504D2B9EB020E68EB38
:102DF80005030138002EA4D0B4EB0E0261EB0301E9
:102E080001FA0CFC22FA07F34CEA0303F940C6E97D
:102E1800003196E74046C5E74346D9E7F8B500BF15
:102E2800F8BC08BC9E467047F8B500BFF8BC08BCA3
:042E38009E467047FB
:102E3C00000000000102030400000000000000007C
:102E4C000102030406070809010002000400060041
:102E5C0008000A000C001000200040008000000157
:082E6C00FCFCFF7F01000000E7
:082E7400552B00083102000893
:042E7C000D0200083B
:102E80000024F40001000000100000008801002070
:04000005080029596D
:00000001FF
