:020000040800F2
:100000000000022099380008ED110008EF110008E7
:10001000F1110008F3110008F511000800000000BC
:10002000000000000000000000000000F7110008C0
:10003000F911000800000000FB110008FD11000884
:10004000E9380008E9380008E9380008E93800080C
:10005000E9380008E9380008E9380008E9380008FC
:10006000E9380008E9380008E9380008E9380008EC
:10007000E9380008E9380008E9380008E9380008DC
:10008000E9380008E9380008E9380008E9380008CC
:10009000E9380008E9380008E9380008E9380008BC
:1000A000E9380008E9380008E9380008E9380008AC
:1000B000E9380008E9380008E9380008E93800089C
:1000C000E9380008E9380008E9380008E93800088C
:1000D000E9380008E9380008E9380008E93800087C
:1000E00005120008E9380008E9380008E938000876
:1000F000E9380008E9380008E9380008E93800085C
:10010000E9380008E9380008E9380008E93800084B
:10011000E9380008E9380008E9380008E93800083B
:10012000E9380008E9380008E9380008E93800082B
:10013000E9380008E9380008E9380008E93800081B
:10014000E9380008E9380008E9380008E93800080B
:10015000E9380008E9380008E9380008E9380008FB
:10016000E9380008E9380008E9380008E9380008EB
:10017000E9380008E9380008E9380008E9380008DB
:10018000E9380008E9380008E9380008E9380008CB
:10019000E938000800000000E9380008E9380008E4
:1001A000E9380008E9380008E9380008E9380008AB
:1001B000E9380008E9380008E9380008E93800089B
:1001C000E9380008E9380008E9380008E93800088B
:0801D000E9380008E9380008D5
:1002000001F0FF01102A2BDB10F0070F08D010F8C7
:10021000013B013A8B422DD010F0070F42B3F6D1CB
:10022000F0B441EA012141EA014122F007047FF0E4
:1002300000070023F0E80256083C85EA010586EA3B
:10024000010685FA47F5A3FA87F586FA47F6A5FA77
:1002500087F68EB9EED1F0BC01F0FF0102F0070283
:1002600032B110F8013B013A83EA010313B1F8D12E
:100270000020704701387047002D06BF354603380F
:10028000073815F0010F07D1013015F4807F02BF48
:10029000013015F4C03F0130F0BC0138704700BF99
:1002A000000000000000000000000000000000004E
:1002B000000000000000000000000000000000003E
:1002C00030B490F800F020F007016FF0000C10F04F
:1002D000070491F820F040F048804FF000046FF0E0
:1002E0000700D1E9002391F840F000F1080082FAFC
:1002F0004CF2A4FA8CF283FA4CF3A2FA8CF34BBBC7
:10030000D1E9022382FA4CF200F10800A4FA8CF23F
:1003100083FA4CF3A2FA8CF3E3B9D1E9042382FA0D
:100320004CF200F10800A4FA8CF283FA4CF3A2FA22
:100330008CF37BB9D1E9062301F1200182FA4CF25A
:1003400000F10800A4FA8CF283FA4CF3A2FA8CF3C1
:10035000002BC6D0002A04BF04301A4612BAB2FAE3
:1003600082F200EBD20030BC7047D1E9002304F0E8
:100370000305C4F100004FEAC50514F0040F91F81D
:1003800040F00CFA05F562EA05021CBF63EA0503BA
:1003900062464FF00004AAE7844641EA000313F0E6
:1003A00003036DD1403A41D351F8043B40F8043B7C
:1003B00051F8043B40F8043B51F8043B40F8043B3F
:1003C00051F8043B40F8043B51F8043B40F8043B2F
:1003D00051F8043B40F8043B51F8043B40F8043B1F
:1003E00051F8043B40F8043B51F8043B40F8043B0F
:1003F00051F8043B40F8043B51F8043B40F8043BFF
:1004000051F8043B40F8043B51F8043B40F8043BEE
:1004100051F8043B40F8043B51F8043B40F8043BDE
:1004200051F8043B40F8043B403ABDD2303211D37E
:1004300051F8043B40F8043B51F8043B40F8043BBE
:1004400051F8043B40F8043B51F8043B40F8043BAE
:10045000103AEDD20C3205D351F8043B40F8043B7E
:10046000043AF9D2043208D0D2071CBF11F8013B7C
:1004700000F8013B01D30B8803806046704700BF42
:10048000082A13D38B078DD010F003038AD0C3F151
:100490000403D21ADB071CBF11F8013B00F8013B33
:1004A00080D331F8023B20F8023B7BE7043AD9D3F2
:1004B000013A11F8013B00F8013BF9D20B780370C7
:1004C0004B7843708B7883706046704781F00041B1
:1004D00002E000BF83F0004330B54FEA41044FEA29
:1004E000430594EA050F08BF90EA020F1FBF54EAC4
:1004F000000C55EA020C7FEA645C7FEA655C00F060
:10050000E2804FEA5454D4EB5555B8BF6D420CDD30
:100510002C4480EA020281EA030382EA000083EAB3
:10052000010180EA020281EA0303362D88BF30BD53
:1005300011F0004F4FEA01314FF4801C4CEA1131A9
:1005400002D0404261EB410113F0004F4FEA033308
:100550004CEA133302D0524263EB430394EA050F93
:1005600000F0A780A4F10104D5F1200E0DDB02FA02
:100570000EFC22FA05F2801841F1000103FA0EF296
:10058000801843FA05F359410EE0A5F120050EF15C
:10059000200E012A03FA0EFC28BF4CF0020C43FA8D
:1005A00005F3C01851EBE37101F0004507D54FF09A
:1005B000000EDCF1000C7EEB00006EEB0101B1F5EA
:1005C000801F1BD3B1F5001F0CD349085FEA300030
:1005D0004FEA3C0C04F101044FEA445212F5800F3B
:1005E00080F09A80BCF1004F08BF5FEA500C50F1D8
:1005F000000041EB045141EA050130BD5FEA4C0CBB
:10060000404141EB0101013C28BFB1F5801FE9D217
:1006100091F0000F04BF01460020B1FA81F308BF3A
:100620002033A3F10B03B3F120020CDA0C3208DD06
:1006300002F1140CC2F10C0201FA0CF021FA02F1E1
:100640000CE002F11402D8BFC2F1200C01FA02F151
:1006500020FA0CFCDCBF41EA0C019040E41AA2BF76
:1006600001EB0451294330BD6FEA04041F3C1CDA3E
:100670000C340EDC04F11404C4F1200220FA04F05E
:1006800001FA02F340EA030021FA04F345EA030108
:1006900030BDC4F10C04C4F1200220FA02F001FACA
:1006A00004F340EA0300294630BD21FA04F029464C
:1006B00030BD94F0000F83F4801306BF81F48011E5
:1006C0000134013D4EE77FEA645C18BF7FEA655C58
:1006D00029D094EA050F08BF90EA020F05D054EA2A
:1006E000000C04BF1946104630BD91EA030F1EBF2F
:1006F0000021002030BD5FEA545C05D14000494133
:1007000028BF41F0004130BD14F580043CBF01F525
:10071000801130BD01F0004545F0FE4141F470010B
:100720004FF0000030BD7FEA645C1ABF19461046E6
:100730007FEA655C1CBF0B46024650EA013406BFE7
:1007400052EA033591EA030F41F4002130BD00BFA6
:1007500090F0000F04BF0021704730B54FF4806463
:1007600004F132044FF000054FF0000150E700BFE4
:1007700090F0000F04BF0021704730B54FF4806443
:1007800004F1320410F0004548BF40424FF0000130
:100790003EE700BF42004FEAE2014FEA31014FEA73
:1007A00002701FBF12F07F4393F07F4F81F06051C2
:1007B000704732F07F4208BF704793F07F4F04BF0D
:1007C00041F40021704730B54FF4607401F00045EA
:1007D00021F000411CE700BF50EA010208BF70474A
:1007E00030B54FF000050AE050EA010208BF70473B
:1007F00030B511F0004502D5404261EB41014FF4A4
:10080000806404F132045FEA915C3FF4D8AE4FF0AB
:1008100003025FEADC0C18BF03325FEADC0C18BF8E
:10082000033202EBDC02C2F1200300FA03FC20FADF
:1008300002F001FA03FE40EA0E0021FA02F114442C
:10084000BDE600BF70B54FF0FF0C4CF4E06C1CEA45
:1008500011541DBF1CEA135594EA0C0F95EA0C0FB6
:1008600000F0DEF82C4481EA030621EA4C5123EA29
:100870004C5350EA013518BF52EA033541F4801158
:1008800043F4801338D0A0FB02CE4FF00005E1FB0B
:1008900002E506F00042E0FB03E54FF00006E1FB55
:1008A00003569CF0000F18BF4EF0010EA4F1FF0498
:1008B000B6F5007F64F5407404D25FEA4E0E6D41D8
:1008C00046EB060642EAC62141EA55514FEAC520E9
:1008D00040EA5E504FEACE2EB4F1FD0C88BFBCF565
:1008E000E06F1ED8BEF1004F08BF5FEA500E50F116
:1008F000000041EB045170BD06F0004646EA0101DC
:1009000040EA020081EA0301B4EB5C04C2BFD4EB0D
:100910000C0541EA045170BD41F480114FF0000E06
:10092000013C00F3AB8014F1360FDEBF002001F074
:10093000004170BDC4F10004203C35DA0C341BDCEE
:1009400004F11404C4F1200500FA05F320FA04F0C0
:1009500001FA05F240EA020001F0004221F00041F4
:1009600010EBD37021FA04F642EB06015EEA430E67
:1009700008BF20EAD37070BDC4F10C04C4F1200597
:1009800000FA04F320FA05F001FA04F240EA02004A
:1009900001F0004110EBD37041F100015EEA430E1B
:1009A00008BF20EAD37070BDC4F1200500FA05F23B
:1009B0004EEA020E20FA04F301FA05F243EA0203BA
:1009C00021FA04F001F0004121FA04F220EA0200C9
:1009D00000EBD3705EEA430E08BF20EAD37070BD0F
:1009E00094F0000F0FD101F00046400041EB0101EF
:1009F00011F4801F08BF013CF7D041EA060195F0D1
:100A0000000F18BF704703F00046520043EB03038A
:100A100013F4801F08BF013DF7D043EA0603704777
:100A200094EA0C0F0CEA135518BF95EA0C0F0CD082
:100A300050EA410618BF52EA4306D1D181EA0301C8
:100A400001F000414FF0000070BD50EA410606BFC2
:100A50001046194652EA430619D094EA0C0F02D107
:100A600050EA013613D195EA0C0F05D152EA03364C
:100A70001CBF104619460AD181EA030101F000416A
:100A800041F0FE4141F470014FF0000070BD41F0B3
:100A9000FE4141F4780170BD70B54FF0FF0C4CF48D
:100AA000E06C1CEA11541DBF1CEA135594EA0C0FAC
:100AB00095EA0C0F00F0A7F8A4EB050481EA030EF9
:100AC00052EA03354FEA013100F088804FEA0333E0
:100AD0004FF0805545EA131343EA12634FEA0222AE
:100AE00045EA111545EA10654FEA00260EF000416F
:100AF0009D4208BF964244F1FD0404F5407402D2C1
:100B00005B084FEA3202B61A65EB03055B084FEA51
:100B100032024FF480104FF4002CB6EB020E75EB4E
:100B2000030E22BFB61A754640EA0C005B084FEA76
:100B30003202B6EB020E75EB030E22BFB61A7546F3
:100B400040EA5C005B084FEA3202B6EB020E75EB3E
:100B5000030E22BFB61A754640EA9C005B084FEAB6
:100B60003202B6EB020E75EB030E22BFB61A7546C3
:100B700040EADC0055EA060E18D04FEA051545EAB2
:100B800016754FEA06164FEAC30343EA52734FEA5B
:100B9000C2025FEA1C1CC0D111F4801F0BD141EAD4
:100BA00000014FF000004FF0004CB6E711F4801F39
:100BB00004BF01430020B4F1FD0C88BFBCF5E06F19
:100BC0003FF6AFAEB5EB030C04BFB6EB020C5FEA29
:100BD000500C50F1000041EB045170BD0EF0004E7E
:100BE0004EEA113114EB5C04C2BFD4EB0C0541EAB0
:100BF000045170BD41F480114FF0000E013C90E6AD
:100C000045EA060E8DE60CEA135594EA0C0F08BF70
:100C100095EA0C0F3FF43BAF94EA0C0F0AD150EA6F
:100C200001347FF434AF95EA0C0F7FF425AF104602
:100C300019462CE795EA0C0F06D152EA03353FF42A
:100C4000FDAE1046194622E750EA410618BF52EAA7
:100C500043067FF4C5AE50EA41047FF40DAF52EA7B
:100C600043057FF4EBAE12E74FF0FF3C06E000BF18
:100C70004FF0010C02E000BF4FF0010C4DF804CD25
:100C80004FEA410C7FEA6C5C4FEA430C18BF7FEAE5
:100C90006C5C1BD001B050EA410C0CBF52EA430C13
:100CA00091EA030F02BF90EA020F0020704710F193
:100CB000000F91EA030F58BF994208BF90422CBF22
:100CC000D8176FEAE37040F0010070474FEA410C1B
:100CD0007FEA6C5C02D150EA013C07D14FEA430C39
:100CE0007FEA6C5CD6D152EA033CD3D05DF8040BAA
:100CF000704700BF8446104662468C4619466346DC
:100D000000E000BF01B5FFF7B7FF002848BF10F1B2
:100D1000000F01BD4DF808EDFFF7F4FF0CBF0120F7
:100D200000205DF808FB00BF4DF808EDFFF7EAFF73
:100D300034BF012000205DF808FB00BF4DF808ED2E
:100D4000FFF7E0FF94BF012000205DF808FB00BF23
:100D50004DF808EDFFF7CEFF94BF012000205DF8AD
:100D600008FB00BF4DF808EDFFF7C4FF34BF0120BA
:100D700000205DF808FB00BF4FEA410C7FEA6C5C85
:100D800002D150EA013C0AD14FEA430C7FEA6C5C85
:100D900002D152EA033C02D14FF0000070474FF0FD
:100DA000010070474FEA410212F5001215D211D529
:100DB0006FF47873B3EB625212D94FEAC12343F058
:100DC000004343EA505311F0004F23FA02F018BFDA
:100DD000404270474FF00000704750EA013005D1A3
:100DE00011F0004008BF6FF0004070474FF0000066
:100DF000704700BF4FEA4102B2F1E04324BFB3F5B0
:100E0000001CDCF1FE5C0DD901F0004C4FEAC00281
:100E10004CEA5070B2F1004F40EB830008BF20F065
:100E20000100704711F0804F21D113F13872BCBF1F
:100E300001F00040704741F480114FEA5252C2F174
:100E40001802C2F1200C10FA0CF320FA02F018BFBD
:100E500040F001004FEAC1234FEAD32303FA0CFC10
:100E600040EA0C0023FA02F34FEA4303CCE77FEA9F
:100E7000625307D150EA01331EBF4FF0FE4040F4E9
:100E80004000704701F0004040F0FE4040F4000098
:100E9000704700BF53B94AB9002908BF00281CBFDA
:100EA0004FF0FF314FF0FF3000F00CB8ADF1080CFF
:100EB0006DE904CE09F0A2F8DDF804E0DDE90223D3
:100EC00004B07047704700BF10B5054C237833B9A4
:100ED000044B13B10448AFF300800123237010BD0D
:100EE000E406002000000000B8A2000808B5034B8B
:100EF0001BB103490348AFF3008008BD00000000A8
:100F0000E8060020B8A20008FEE7000000B58DB09A
:100F10001E481F4B03604FF440334360002383603F
:100F2000C360036143610422826103774377012236
:100F3000026280F82430C362036380F83830C363F0
:100F400080F8403000F0FAF9D0B90023099309A9DC
:100F50000E4801F045F8A8B90E4B01930623029301
:100F6000002303937F2204920422059206930DEB43
:100F70000201064800F0D6FB30B90DB05DF804FB65
:100F8000FFF7C2FFFFF7C0FFFFF7BEFF000700201B
:100F9000000400500200300410B52DED028B1E4CF1
:100FA000204600F017FF0A21204600F00BFB10BB83
:100FB000194C204600F0B2FBFFF7CAFB10A3D3E99F
:100FC0000023FFF73FFC02460B460FA1D1E90001C9
:100FD000FFF780FA0EA3D3E90023FFF75DFDFFF7CB
:100FE00009FF08EE100A204600F0D8FFB0EE480ACC
:100FF000BDEC028B10BDFFF787FF00BFAFF3008091
:10100000CDCCCCCCCCCC33406666666666660A40F6
:101010002AE3DF675C38703F0007002010B59CB002
:10102000044600211791189119911A911B9154228D
:1010300002A802F0BBFD2268174B9A4201D01CB0F7
:1010400010BD4FF4803302934FF00043149302A875
:1010500001F0A2FEE8B9114BDA6C42F48042DA6486
:10106000DA6C02F480420092009ADA6C42F00202DA
:10107000DA64DB6C03F002030193019B02231793F4
:10108000032318930023199317A9054801F068F961
:10109000D5E7FFF739FF00BF000400500010024001
:1010A00000040048FEE710B594B006AC38220021D9
:1010B000204602F07BFD00230193029303930493E7
:1010C0000593022306934FF48072099240220A92FC
:1010D0000D930E9301220F920822109211931393F5
:1010E0001293204601F07CFA70B90F230193032379
:1010F00002930023039304930593022101A801F0B6
:1011000025FD18B914B010BDFFF7CCFFFFF7CAFFDB
:1011100010B590B001F070F8FFF7C5FFFFF7F6FECD
:1011200000F026F8FFF738FF10EE104A0D4B009341
:101130003C22002101A802F039FD2046FFF72AFBDE
:1011400002460B460849684602F0C6FC4FF0FF33E2
:1011500040226946054802F07BFA4FF4FA7001F02C
:101160006DF8DFE764696E63D0A200086C070020A9
:1011700030B589B01A4B9A6D42F400329A659A6D77
:1011800002F400320192019ADA6C42F00102DA6450
:10119000DB6C03F001030293029B03A90024039478
:1011A0004C608C60CC600C610C2503950223049389
:1011B00001230593072307934FF0904001F0D0F8E7
:1011C0000848094B03604FF4E13343608460C46016
:1011D000046145618461C46102F008FB09B030BD5F
:1011E000001002406C07002000440040FEE7FEE7CC
:1011F000FEE7FEE7FEE770477047704708B501F06D
:101200000BF808BD08B5002002F024FB08BD012042
:10121000704708B502F06CFD162303604FF0FF30F5
:1012200008BD08B54FF0FF31FFF7F3FFFEE770B5DB
:101230000C461646002506E0AFF30080214601F873
:10124000010B01350C46B542F6DB304670BD70B57A
:101250000C461646002504E014F8010B02F004FBCE
:101260000135B542F8DB304670BD4FF0FF307047B6
:101270004FF400534B60002070470120704700205E
:101280007047000010B503460C4A0D490D48006830
:1012900040B10C4800680344521A934206D8094AE8
:1012A000136010BD0748084C0460F2E702F020FD0F
:1012B0000C2303604FF0FF30F3E700BF0000022073
:1012C0000004000000080020C00B0020034AD2F8F0
:1012D000883043F47003C2F88830704700ED00E0B6
:1012E00010B430300B0A9B0003F00C03C45801F01B
:1012F0001F014FF01F0C0CFA01FC24EA0C0CC2F386
:1013000084628A404CEA0202C2505DF8044B704786
:1013100010B414304B0E9B0003F00403C458C1F307
:1013200004514FF0070C0CFA01FC24EA0C0C8A4023
:101330004CEA0202C2505DF8044B704730B583B0EE
:1013400000230193002800F029810446C36D13B3E4
:1013500023689A6812F0005F05D09A6822F0204254
:1013600022F03F029A602268936813F0805F1FD1D9
:10137000936823F0104323F03F0343F080539360BE
:10138000874B1B689B09874AA2FB03239B090133F8
:101390005B00019309E0FFF741FE0023236684F818
:1013A0005830D5E7019B013B0193019B002BF9D1FC
:1013B0002268936813F0805F3CD1E36D43F0100323
:1013C000E365236E43F0010323660120936813F065
:1013D000040300D00123E16D11F0100F40F0D7801D
:1013E000002B40F0D480E36D23F4817343F00203BB
:1013F000E365936813F0010F3CD1B2F1A04F1BD00D
:10140000694B9A4218D0694B996811F0010100D0DC
:101410000121674B9B6813F0010300D001230B43AC
:101420006449896811F0010100D001210B4383F068
:10143000010311E00020C9E74FF0A043996811F0C3
:10144000010100D00121584B9B6813F0010300D02B
:1014500001230B4383F0010363B1B2F1A04F69D0C4
:10146000514B9A4264D0544963688A6822F47C12D2
:1014700013438B60627FE36B43EA4233E2681343BA
:10148000A268134394F8242043EA0243012A53D06C
:10149000E26A22B102F47872216B0A431343216895
:1014A000CD68464A2A401A43CA602268136923F06D
:1014B0004063616B0B4313612268936813F0080368
:1014C00000D001232BBB237F94F83810490041EA58
:1014D0008331D36823F4804323F002030B43D360AA
:1014E000236973B32268136943F48033136122685C
:1014F000D2F8C0306FF30D0321690B43C2F8C0303E
:1015000094F84030012B29D02268136923F001039D
:1015100013616369012B31D02268136B23F00F0331
:101520001363E36D23F0030343F00103E36533E04A
:10153000234999E7224997E7A26A013A43EA4243DD
:10154000A6E72268136923F4803313612268D2F876
:10155000C0306FF30D03C2F8C030D1E721680B69CA
:101560006FF38A03626CA56C2A43E56C2A43256DF0
:101570002A43134343F001030B61CAE721680B6B55
:1015800023F00F03226A013A13430B63C9E7E36DAB
:1015900043F01003E365012003B030BD0120FBE7F9
:1015A00000000020632D3E050001005000040050A3
:1015B0000005005000060050000700500740F0FFF3
:1015C000000300502DE9F04104460E460368B3F1D4
:1015D000A04F38D04E4A934232D04E4A976807F017
:1015E0001F07A569082D0CD0092F34D840F22122FD
:1015F000FA4012F0010F2ED0DB6813F0010F24D156
:10160000042500F015FE804623681A682A4239D165
:10161000B6F1FF3FF8D000F00BFEA0EB0800B0429F
:1016200001D8002EF0D123681B682B42ECD1E36D6A
:1016300043F00403E365002384F85830032062E09C
:1016400002F50072CAE7344AC8E7E36D43F02003AD
:10165000E365012057E0B3F1A04F0BD02C4A934231
:1016600006D02C4B9B6813F4604F05D10425C8E7C6
:10167000294BF7E7284BF5E7E36D43F02003E365DB
:10168000012040E0E26D42F40072E265DA6812F493
:10169000406F11D1627F7AB91A6812F0080F0BD02F
:1016A000E26D22F48072E265E26D12F4805F03D194
:1016B000E26D42F00102E265154A93421BD002F549
:1016C0008062934214D01A46934207D0092F15D84E
:1016D00040F22121F94011F0010F0FD0DA68082DF6
:1016E0000ED012F4804F10D10C221A6000200AE0B4
:1016F000A2F58072E8E74FF0A042E5E7D268EEE796
:1017000008221A600020BDE8F0810020FBE700BF3E
:101710000001005000070050000300500368186CDF
:1017200070470000F0B583B00023019390F8583063
:10173000012B00F0428204460D46012380F8583008
:101740000068836813F0040F09D0E36D43F02003B1
:10175000E3650120002384F8583003B0F0BD0A6827
:101760004968FFF7BDFD2068836813F0040300D0CB
:101770000123866816F0080600D00126002B3ED112
:10178000002E3CD1AA68B2F1004F78D02968FFF74B
:10179000BFFD2268536923F00043536169692268E1
:1017A000D368C3F3C1035B0099402869042873D050
:1017B000603252F82070AB4B3B402F6807F0F84C7A
:1017C00041EA0C010B4343F0004342F82030236808
:1017D0002869AA69603353F8201021F080710A4308
:1017E00043F82020236829692A7F012A51D06033D9
:1017F00053F8212022F00072324343F8212022685E
:10180000936813F0010F16D12B68E868D2F8B01076
:10181000C3F3120621EA060100F018069248F040D0
:101820000340C3F312030B43C2F8B030EA688F4B96
:101830009A4200F099802B688D4A134200F0B781DC
:101840002268B2F1A04F00F050818A498A4200F02C
:1018500049818949896801F0E070884DAB4200F008
:101860004681874DAB4200F04281864DAB4200F08D
:101870007181854DAB4200F0858100206AE700222E
:101880002968FFF745FD2268536943F0004353611F
:1018900084E74FF00076AAE7136E116EC1F38461FE
:1018A0002B68C3F3120080BBC3F38463994234D026
:1018B00021684B6E4A6EC2F384622B68C3F3120038
:1018C00080BBC3F384639A4234D021688B6E8A6EE6
:1018D000C2F384622B68C3F3120080BBC3F384633A
:1018E0009A4234D02168CB6ECA6EC2F384622B68F0
:1018F000C3F3120080BBC3F384639A427FF47FAFCB
:10190000CB6E23F00043CB6679E793FAA3F313B1D0
:10191000B3FA83F3CAE72023C8E7136E23F000432A
:101920001366C5E793FAA3F313B1B3FA83F3CAE7D7
:101930002023C8E74B6E23F000434B66C5E793FABC
:10194000A3F313B1B3FA83F3CAE72023C8E78B6E7E
:1019500023F000438B66C5E793FAA3F313B1B3FA00
:1019600083F3CAE72023C8E720682B68C3F3120675
:1019700026BB9A0E013202F01F02092A8CBF0022F8
:101980000122002A52D046BB990E0131890601F08E
:10199000F84176BB9F0E013707F01F070122BA40BE
:1019A0001143AEBB9B0E013303F01F0303EB430354
:1019B0001B051943AA68FFF7ABFC3CE793FAA3F2B7
:1019C0004AB1B2FA82F2013202F01F02092A8CBF38
:1019D00000220122D5E72022F5E793FAA3F131B1E5
:1019E000B1FA81F10131890601F0F841D1E72021F6
:1019F000F8E793FAA3F24AB1B2FA82F2013202F0A6
:101A00001F024FF0010C0CFA02F2C9E72022F5E7A1
:101A100093FAA3F343B1B3FA83F3013303F01F0343
:101A200003EB43031B05C4E72023F6E776BB990EBF
:101A30000131890601F0F841A6BB9F0E013707F07E
:101A40001F070122BA401143DEBB9B0E013303F096
:101A50001F0303EB43031E3B1B0543F000731943B5
:101A6000A8E700BF00F0FF03FFFF070000007F4072
:101A7000000008800001005000070050000021C352
:101A80001000C090000052C7000084CB93FAA3F16D
:101A900031B1B1FA81F10131890601F0F841CBE7AA
:101AA0002021F8E793FAA3F24AB1B2FA82F20132A6
:101AB00002F01F024FF0010C0CFA02F2C3E72022E1
:101AC000F5E793FAA3F35BB1B3FA83F3013303F0C1
:101AD0001F0303EB43031E3B1B0543F00073BEE7EC
:101AE0002023F3E701F50071B4E63549B2E611F4BD
:101AF000000F7FF4BAAEB2F1A04F04D0314B9A423E
:101B000001D0002026E6B2F1A04F19D02E4B9A4208
:101B100014D02E4A40F40000936823F0E073184379
:101B200090602B4B1B689B092A4AA2FB03239B094D
:101B3000013303EB43039B00019306E0204AE9E7EE
:101B40001F4AE7E7019B013B0193019B002BF9D161
:101B50000020FFE511F0807F7FF48BAEB2F1A04F43
:101B60000ED0194B9A4209D0184A40F08070936801
:101B700023F0E073184390600020EBE5104AF4E78F
:101B80000F4AF2E711F4800F13D10F4B9A4212D093
:101B9000B2F1A04F09D00D4940F480038A6822F0C9
:101BA000E07213438B600020D4E50549F4E7002080
:101BB000D0E50020CEE50020CCE50220CDE500BF39
:101BC00000030050000600500001005000070050C4
:101BD00000000020632D3E0570B5044603689A6836
:101BE00012F0040200D00122986810F0080000D022
:101BF00001200AB900286DD0DA6812F0007F04D005
:101C0000A08B40F2011290424ED0022912D02368DC
:101C10009A6812F0040F0BD09A6812F0020F07D1E5
:101C20009A6822F0004222F03F0242F010029A60CD
:101C3000012947D023689A6812F0080F0BD09A68E0
:101C400012F0020F07D19A6822F0004222F03F0200
:101C500042F020029A60022936D0032936D10C25A1
:101C600000F0E6FA064623689B682B4230D000F06D
:101C7000DFFA801B0528F6D923689B682B42F2D037
:101C8000E36D43F01003E365236E43F00103236625
:101C900001201EE0E36D43F01003E365236E43F083
:101CA00001032366012014E00022196811F0400F9F
:101CB00004D109498A42EDD80132F6E740221A6080
:101CC0000121A4E70425CBE70825C9E70425C7E7D8
:101CD000002070BD0020FCE7FFFF3FA330B583B0BC
:101CE0000023019303689A6812F0010F63D1044640
:101CF0009968324A114220D19A6822F0004222F0BB
:101D00003F0242F001029A600368B3F1A04F20D075
:101D10002B4A93421BD02B4B9B6813F4000F20D00F
:101D2000294B1B689B09294AA2FB03239B0901330A
:101D300003EB43039B00019310E0C36D43F01003DA
:101D4000C365036E43F001030366012034E0204BBA
:101D5000E2E71F4BE0E7019B013B0193019B002B56
:101D6000F9D100F065FA054623681A6812F0010FF0
:101D70001FD19A6812F0010F07D19A6822F0004231
:101D800022F03F0242F001029A6000F051FA431B38
:101D9000022BE9D923681B6813F0010FE4D1E36D2E
:101DA00043F01003E365236E43F001032366012033
:101DB00002E0002000E0002003B030BD3F000080C2
:101DC000000100500007005000000020632D3E0578
:101DD0000003005038B504460368B3F1A04F64D047
:101DE000464A93425ED0464A956805F01F059B68B7
:101DF00013F0040F7DD194F85830012B7BD00123D0
:101E000084F858302046FFF769FF00286DD1E36D54
:101E100023F4706323F0010343F48073E3652368C4
:101E2000364A934246D002F5806293423FD01A462A
:101E3000934200D01DB9E26D22F48012E265E26D9A
:101E400012F4805F39D0226E22F0060222661C2234
:101E50001A60002384F858302368284A934232D00D
:101E600002F5806293422BD01A46934207D0092D87
:101E70002CD840F22121E94011F0010F26D0DA6878
:101E800012F0007F05D0E26D22F4405242F48052FD
:101E9000E2659A6822F0004222F03F0242F004021A
:101EA0009A6027E002F500729EE7164A9CE7A2F5C9
:101EB0008072BDE74FF0A042BAE700222266C6E773
:101EC000A2F58072D1E74FF0A042CEE7E36D43F474
:101ED0008013E365D36813F0007F0BD0E36D23F428
:101EE000405343F48053E36504E0002384F8583002
:101EF00000E0022038BD0220FCE700BF00010050D6
:101F0000000700500003005038B50446026893688B
:101F100013F0020300D00123916811F0010F39D0B2
:101F2000002B39D1936803F00D03012B09D0E36D29
:101F300043F01003E365236E43F0010323660120A1
:101F400029E0936823F0004323F03F0343F00203AA
:101F50009360236803221A6000F06AF9054623683B
:101F60009B6813F0010F13D000F062F9401B0228A8
:101F7000F5D923689B6813F0010FF0D0E36D43F0AF
:101F80001003E365236E43F001032366012002E0A2
:101F9000002000E0002038BD0020FCE790F8583019
:101FA000012B1AD010B50446012380F858300321C4
:101FB000FFF712FE18B1002384F8583010BD2046F8
:101FC000FFF7A2FF0028F6D1E36D23F4885323F036
:101FD000010343F00103E365EDE7022070470000D1
:101FE00090F85820012A00F0D18010B49DB003462B
:101FF000012280F858200022189219920068B0F14E
:10200000A04F46D0624A904246D000220192019AE7
:10201000002A45D0926812F0040200D001228468A0
:1020200014F0040F40F0A280002A40F09F80B0F12D
:10203000A04F40D0574A90423BD057480A68002AE8
:1020400059D0826822F460424C6893F838C044EA60
:102050004C34224382601A68B2F1A04F2DD04D4C0F
:10206000A2422AD04A4A946814F0010400D0012404
:102070004A4A926812F0010200D001222243484CE1
:10208000A46814F0010400D00124224382F001026C
:1020900023E0404A0192BAE702F580720192B6E766
:1020A000DA6D42F02002DA65002283F85820012020
:1020B00064E03C48C2E73B48C0E74FF0A042946868
:1020C00014F0010400D00124324A926812F0010297
:1020D00000D00122224382F00102002A52D08268FD
:1020E00022F4716222F00F020C68896821430A43CE
:1020F000826000203FE0826822F4604282601A68B9
:10210000B2F1A04F19D023498A4216D0204A9168D3
:1021100011F0010100D00121204A926812F0010261
:1021200000D001220A431E49896811F0010100D044
:1021300001210A4382F001020FE04FF0A0429168B2
:1021400011F0010100D00121124A926812F001023F
:1021500000D001220A4382F00102AAB1826822F46F
:10216000716222F00F028260002004E0DA6D42F01A
:102170002002DA650120002283F858201DB05DF8A6
:10218000044B70470020F6E70020F4E70220704778
:1021900000040050000100500007005000050050EE
:1021A0000006005000030050104B1B680BB90120C3
:1021B000704710B504464FF47A70B0FBF3F30C4A45
:1021C0001068B0FBF3F000F0A3F868B90F2C01D948
:1021D00001200AE0002221464FF0FF3000F088F88D
:1021E000044B1C60002000E0012010BD0400002012
:1021F000000000200800002010B5032000F066F861
:102200000020FFF7D1FF10B10124204610BD044685
:1022100000F096F9F9E70000034A136803490968DA
:102220000B441360704700BF040800200400002026
:10223000014B1868704700BF0408002038B50446F9
:10224000FFF7F6FF0546B4F1FF3F02D0044B1B68D1
:102250001C44FFF7EDFF401BA042FAD338BD00BF7E
:1022600004000020002808DB0901C9B200F1604029
:1022700000F5614080F80013704700F00F0009017D
:10228000C9B2014B1954704714ED00E000B500F0DD
:102290000700C0F1070CBCF1040F28BF4FF0040C7D
:1022A000031D062B0FD9C31E4FF0FF3E0EFA0CF094
:1022B00021EA000199400EFA03FE22EA0E0241EAE9
:1022C00002005DF804FB0023EEE70000074AD36834
:1022D00023F4E0631B041B0C000200F4E0600343E2
:1022E00043F0BF6343F40033D360704700ED00E078
:1022F00010B50446054BD868C0F30220FFF7C6FFAF
:1023000001462046FFF7AEFF10BD00BF00ED00E024
:102310000138B0F1807F0BD24FF0E0235861054ABD
:10232000F02182F823100020986107221A6170477B
:102330000120704700ED00E010B50368C3F30042D0
:1023400003F01F03012199405301044A9C580C4299
:1023500003D09950436803B1984710BD140401405D
:10236000F0B583B0002366E085685E000324B440C6
:1023700025EA0405CC68B4402C438460456825EA0E
:102380000C054C68C4F300149C402C43446063E08B
:102390008C68012C65D173E0DD08083550F82540C4
:1023A00003F0070C4FEA8C0C4FF00F0E0EFA0CFEE8
:1023B00024EA0E0E0C6904FA0CF444EA0E0440F808
:1023C000254062E0052400E0002404FA0EF42C43CA
:1023D0000CF1020C564D45F82C40564CA568D443E0
:1023E00025EA02064F6817F4801F01D042EA05066D
:1023F000504DAE60ED6804EA05064F6817F4001F03
:1024000001D042EA05064B4DEE606D6804EA050610
:102410004F6817F4003F01D042EA0506454D6E6053
:102420002D682C404E6816F4803F01D042EA050426
:10243000404A146001330A6832FA03F476D04FF050
:10244000010C0CFA03FC1CEA0202F3D04C6804F005
:102450000304013C012C87D94C6804F00304032CCD
:1024600096D0C4684FEA430E4FF0030C0CFA0EFCF2
:1024700024EA0C0C8C6804FA0EF444EA0C04C460E0
:102480004C6804F00304022C86D004684FEA430E23
:102490004FF0030C0CFA0EFC24EA0C0C4C6804F010
:1024A000030404FA0EF444EA0C0404604C6814F4C7
:1024B000403FBFD0204C256E45F001052566246EB7
:1024C00004F001040194019C4FEA930C0CF1020505
:1024D000174C54F8255003F0030E4FEA8E0E0F24CC
:1024E00004FA0EF425EA0405B0F1904F3FF46CAF06
:1024F000124CA04212D004F58064A04210D004F522
:102500008064A0420ED004F58064A0420CD004F593
:102510008064A0423FF456AF062456E7012454E7F6
:10252000022452E7032450E704244EE703B0F0BD31
:102530000000014000040140001002400004004877
:1025400000B583B00B4B1A6E42F001021A661A6E88
:1025500002F001020092009A9A6D42F080529A6550
:102560009B6D03F080530193019B00F005F803B0CD
:102570005DF804FB00100240024A936843F4804374
:102580009360704700700040124BDA6802F003025B
:10259000DB68C3F303130133032A11D00E48B0FBE9
:1025A000F3F00C4BDB68C3F3062303FB00F0094B8D
:1025B000DB68C3F3416301335B00B0FBF3F07047AA
:1025C0000648B0FBF3F0034BDB68C3F3062303FBC1
:1025D00000F0ECE7001002400024F40000366E0129
:1025E000002800F04F8270B582B00446036813F0F3
:1025F000010F37D0A44A936803F00C03D26802F0AD
:1026000003020C2B23D0082B23D06368B3F5803F43
:102610004ED0B3F5A02F51D09B4B1A6822F48032D4
:102620001A601A6822F480221A606368002B52D064
:10263000FFF7FEFD0546944B1B6813F4003F11D1D4
:10264000FFF7F6FD401B6428F5D9032023E2032A97
:10265000D9D18D4B1B6813F4003F03D06368002B66
:1026600000F01282236813F0020F5DD0864A93684F
:1026700003F00C03D26802F003020C2B3AD0042BB7
:102680003AD0E368002B75D07F4A136843F4807317
:102690001360FFF7CDFD05467B4B1B6813F4806F7D
:1026A0005FD1FFF7C5FD401B0228F5D90320F2E1F9
:1026B000754A136843F480331360B6E703F180432F
:1026C000A3F53C331A6842F480221A601A6842F477
:1026D00080321A60A9E7FFF7ABFD05466A4B1B681D
:1026E00013F4003FBED0FFF7A3FD401B6428F5D9CB
:1026F0000320D0E1022AC2D1634B1B6813F4806F20
:1027000003D0E368002B00F0C1815F4A536823F0D7
:10271000FE43216943EA016353605C4B1868FFF78D
:1027200043FD002840F0B481236813F0080F4CD01B
:1027300063699BB3544AD2F8943043F00103C2F862
:102740009430FFF775FD05464F4BD3F8943013F0E6
:10275000020F3AD1FFF76CFD401B0228F4D9032089
:1027600099E1494A536823F0FE43216943EA016332
:102770005360D9E7444A136823F480731360FFF76A
:1027800057FD0546404B1B6813F4806FCCD0FFF714
:102790004FFD401B0228F5D903207CE13A4AD2F8CC
:1027A000943023F00103C2F89430FFF741FD054651
:1027B000354BD3F8943013F0020F06D0FFF738FDF5
:1027C000401B0228F4D9032065E1236813F0040FAD
:1027D00000F081802C4B9B6D13F0805F36D12A4B2B
:1027E0009A6D42F080529A659B6D03F0805301937D
:1027F000019B0125264B1B6813F4807F28D0A3681A
:10280000012B39D0052B45D01F4BD3F8902022F057
:102810000102C3F89020D3F8902022F00402C3F8FC
:102820009020A368002B43D0FFF702FD0646164B0D
:10283000D3F8903013F0020F4CD1FFF7F9FC801B56
:1028400041F288339842F2D9032024E10025D1E7F0
:102850000F4A136843F480731360FFF7E9FC0646E0
:102860000B4B1B6813F4807FC9D1FFF7E1FC801B81
:102870000228F5D903200EE1034AD2F8903043F044
:102880000103C2F89030CCE700100240080000209D
:1028900000700040884BD3F8902042F00402C3F847
:1028A0009020D3F8902042F00102C3F89020B8E7BE
:1028B000FFF7BEFC0646804BD3F8903013F0020FB2
:1028C00008D0FFF7B5FC801B41F288339842F2D95B
:1028D0000320E0E0E5B9236813F0200F35D0A369A9
:1028E000E3B1754AD2F8983043F00103C2F898304A
:1028F000FFF79EFC0546704BD3F8983013F0020F9B
:1029000023D1FFF795FC401B0228F4D90320C2E035
:10291000694A936D23F080539365DCE7664AD2F8E9
:10292000983023F00103C2F89830FFF781FC054688
:10293000614BD3F8983013F0020F06D0FFF778FC04
:10294000401B0228F4D90320A5E0E369002B00F026
:10295000A180594A926802F00C020C2A64D0022B22
:1029600013D0554A136823F080731360FFF760FC9F
:102970000446514B1B6813F0007F4ED0FFF758FC04
:10298000001B0228F5D9032085E04B4A136823F089
:1029900080731360FFF74CFC0546474B1B6813F030
:1029A000007F06D0FFF744FC401B0228F5D9032026
:1029B00071E0414AD36841491940236A606A01388D
:1029C00043EA0013A06A43EA0023206B4008013861
:1029D00043EA4053606B4008013843EA4063E06AD1
:1029E00043EAC0631943D160136843F080731360F6
:1029F000D36843F08073D360FFF71AFC04462E4B74
:102A00001B6813F0007F06D1FFF712FC001B0228A1
:102A1000F5D903203FE000203DE0274AD168284B4C
:102A20000B40D360002036E0012B36D0224BDB6810
:102A300003F00301226A914231D103F0F002616A8E
:102A40000139B2EB011F2CD103F4FE42A16AB2EBB3
:102A5000012F28D103F07842E16AB2EBC16F24D193
:102A600003F4C001226B5208013AB1EB425F1ED160
:102A700003F0C063626B5208013AB3EB426F18D1A6
:102A8000002008E001207047012004E0012002E05E
:102A9000012000E0002002B070BD0120FBE7012012
:102AA000F9E70120F7E70120F5E70120F3E701202E
:102AB000F1E70120EFE700BF001002400C809F010A
:102AC000FCFFEEFE1E4B9B6803F00C03042B33D07F
:102AD0001B4B9B6803F00C03082B2FD0184B9B68F3
:102AE00003F00C030C2B01D000207047144BDA6864
:102AF00002F00302DB68C3F303130133032A11D08E
:102B00001048B0FBF3F00E4BDB68C3F3062303FB66
:102B100000F00B4BDB68C3F3416301335B00B0FB98
:102B2000F3F070470848B0FBF3F0054BDB68C3F3E4
:102B3000062303FB00F0ECE70248704702487047A9
:102B4000001002400024F40000366E01002800F05E
:102B5000E680F8B50C460546744B1B6803F00F037E
:102B60008B420BD2714A136823F00F030B4313609F
:102B7000136803F00F038B4240F0D3802E6816F0E9
:102B800001065FD06B68032B2FD0022B4DD0684B12
:102B90001B6813F4806F00F0C680FFF793FF654B4E
:102BA00098424DD9624A936823F0F00343F08003C2
:102BB000936080265E4A936823F0030369680B43A1
:102BC0009360FFF735FB0746594B9B6803F00C03F6
:102BD0006A68B3EB820F35D0FFF72AFBC01B41F2C6
:102BE00088339842F0D9032078E0514B1B6813F0EA
:102BF000007F01D1012071E0FFF7C6FC4D4B9842E8
:102C00001AD94B4B9B6813F0F00F05D02E6816F0C5
:102C10000206CFD0AB688BB9454A936823F0F00326
:102C200043F0800393608026C4E7414B1B6813F494
:102C3000003FB2D1012051E00026BBE70026B9E7F2
:102C40000026B7E72B6813F0020F48D013F0040FEB
:102C500004D0374A936843F4E06393602B6813F021
:102C6000080F06D0324A936823F47C5343F4E063A0
:102C700093602F4A936823F0F003A9680B43936095
:102C80002A4B1B6803F00F03A34230D82B6813F0C4
:102C9000040F06D0264A936823F4E063E9680B43E7
:102CA00093602B6813F0080F07D0214A936823F430
:102CB0006053296943EAC1039360FFF703FF1C4B8C
:102CC0009B68C3F303131C4AD35C03F01F03D84073
:102CD0001A4B18601A4B1868FFF766FAF8BD802E79
:102CE000CED1134A936823F0F0039360C8E70F4AEC
:102CF000136823F00F0323431360FFF799FA064686
:102D00000A4B1B6803F00F03A342BFD0FFF790FAF2
:102D1000801B41F288339842F2D90320DEE701207C
:102D200070470120DAE70120D8E700BF0020024009
:102D30000010024000B4C40420A4000800000020D9
:102D400008000020014B1868704700BF00000020F9
:102D500008B5FFF7F7FF054B9B68C3F30223044A4E
:102D6000D35C03F01F03D84008BD00BF0010024031
:102D700018A4000808B5FFF7E5FF054B9B68C3F3EF
:102D8000C223044AD35C03F01F03D84008BD00BF30
:102D90000010024018A40008F0B583B00446036890
:102DA00013F4002F6ED0354B9B6D13F0805F1ED156
:102DB000324B9A6D42F080529A659B6D03F08053BE
:102DC0000193019B01262E4A136843F4807313601C
:102DD000FFF72EFA05462A4B1B6813F4807F08D1B3
:102DE000FFF726FA401B0228F5D9032502E000264A
:102DF000E9E7002545BB214BD3F8903013F440732D
:102E000018D0226D9A4212D01C4AD2F8903023F486
:102E10004073D2F8901041F48031C2F89010D2F88B
:102E2000901021F48031C2F89010C2F8903013F065
:102E3000010F10D145B9114AD2F8903023F44073F4
:102E4000216D0B43C2F89030EEB10C4A936D23F024
:102E50008053936517E0FFF7EBF90746074BD3F86C
:102E6000903013F0020FE5D1FFF7E2F9C01B41F2F9
:102E700088339842F2D90325DCE700BF00100240F6
:102E8000007000400025236813F0010F08D09F4A0E
:102E9000D2F8883023F0030361680B43C2F888300E
:102EA000236813F0020F08D0984AD2F8883023F034
:102EB0000C03A1680B43C2F88830236813F0040F99
:102EC00008D0924AD2F8883023F03003E1680B43EF
:102ED000C2F88830236813F0080F08D08B4AD2F864
:102EE000883023F0C00321690B43C2F8883023687F
:102EF00013F0100F08D0854AD2F8883023F44073BD
:102F000061690B43C2F88830236813F0200F08D0A2
:102F10007E4AD2F8883023F44063A1690B43C2F89B
:102F20008830236813F0400F08D0784AD2F88830F0
:102F300023F44053E1690B43C2F88830236813F04F
:102F4000800F08D0714AD2F8883023F44043216AB8
:102F50000B43C2F88830236813F4807F08D06B4A93
:102F6000D2F8883023F44033616A0B43C2F88830CA
:102F7000236813F4003F08D0644AD2F89C3023F051
:102F80000303A16A0B43C2F89C30236813F4007F4B
:102F900008D05E4AD2F8883023F44023E16A0B431C
:102FA000C2F88830236813F4806F0CD0574AD2F8E7
:102FB000883023F44013216B0B43C2F88830236B15
:102FC000B3F5801F79D0236813F4006F0CD04F4AFB
:102FD000D2F8883023F44003616B0B43C2F8883089
:102FE000636BB3F5800F6DD0236813F4805F0CD052
:102FF000464AD2F8883023F04073A16B0B43C2F8E5
:103000008830A36BB3F1807F61D0236813F4005F35
:103010000CD03E4AD2F8883023F04063E16B0B437A
:10302000C2F88830E36BB3F1006F55D0236813F416
:10303000804F0CD0354AD2F8883023F04063216CA1
:103040000B43C2F88830236CB3F1006F49D023687A
:1030500013F4004F0CD02D4AD2F8883023F040539F
:10306000616C0B43C2F88830636CB3F1805F3DD074
:10307000236813F4803F0CD0244AD2F8883023F020
:103080004043A16C0B43C2F88830A36CB3F1804F6E
:1030900031D0236813F4802F0CD01C4AD2F89C3016
:1030A00023F44013E16C0B43C2F89C30E36CB3F59E
:1030B000001F25D0284603B0F0BDD36843F4801329
:1030C000D36080E7D36843F48013D3608CE7D36880
:1030D00043F48013D36098E7D36843F48013D3603C
:1030E000A4E7D36843F48013D360B0E7D36843F414
:1030F0008033D360BCE7D36843F48033D360C8E740
:10310000D36843F48013D360D4E700BF00100240BB
:10311000026852E8003F23F4907342E8003100292E
:10312000F6D1026802F1080353E8003F23F0805310
:1031300023F00103083242E800310029F1D1C36EC7
:10314000012B06D02023C0F88C300023C3664367D0
:103150007047026852E8003F23F0100342E8003154
:103160000029F6D1EEE7704770B50446836802691E
:10317000134342691343C269134301680868954ABF
:1031800002401A430A602268536823F44053E168FE
:103190000B435360A16922688F4B9A4201D0236A86
:1031A0001943936823F06E4323F430630B43936019
:1031B0002268D36A23F00F03616A0B43D36223684A
:1031C000864A934210D0864A934221D0854A934240
:1031D0004DD0854A93425DD0844A93426CD07E4A5A
:1031E00093427ED010222BE002F55842D2F888207C
:1031F00002F00302032A09D8DFE802F0020488067D
:1032000001221DE004221BE0082219E0102217E031
:1032100002F5E632D2F8882002F00C020C2A0ED811
:10322000DFE802F0070D0D0D090D0D0D760D0D0DEA
:103230000B00002204E0042202E0082200E0102239
:1032400065498B4200F08680E069B0F5004F00F0E0
:10325000D580082A00F23581DFE812F003011C0155
:10326000010133011F01330133013301220102F552
:10327000E432D2F8882002F03002202A4AD005D861
:10328000002A49D0102A49D10422D9E7302A47D14F
:103290000822D5E702F5E232D2F8882002F0C00217
:1032A000802A3FD004D8FAB3402A3FD10422C7E78E
:1032B000C02A3DD10822C3E702F5E032D2F88820C7
:1032C00002F44072B2F5007F34D005D8A2B3B2F553
:1032D000807F33D10422B3E7B2F5407F30D108229A
:1032E000AEE702F5C832D2F8882002F44062B2F5A7
:1032F000006F27D005D83AB3B2F5806F26D10422EB
:103300009EE7B2F5406F23D1082299E7022297E7A2
:10331000022295E7022293E7002291E710228FE72D
:1033200010228DE702228BE7002289E7102287E72F
:10333000102285E7022283E7002281E710227FE73F
:1033400010227DE702227BE7002279E7102277E74F
:10335000102275E7082A00F2A680DFE802F008A430
:1033600010A40DA4A4A405004FF4004008E0FFF74A
:10337000EFFC28B90020A5E0FFF7A4FBF9E71C4803
:10338000626A1C4B33F81220B0FBF2F3656805EB60
:103390004501994200F28980B3EB053F00F2878036
:1033A000002633463146FDF775FD090241EA1061FA
:1033B00000026B08C0182A46334641F10001FDF7B0
:1033C00069FDA0F540720C4B9A4272D82368D86010
:1033D000304677E0F369FFCF0080004000380140BD
:1033E0000044004000480040004C004000500040B5
:1033F0000024F40030A40008FFFC0F00082A5AD86B
:10340000DFE802F0072705592A5959590B003448BB
:1034100003E0FFF79DFC00284FD0626A314B33F880
:103420001230B0FBF3F06268530803EB4003B3FBC8
:10343000F2F3A3F110014FF6EF7291423FD89AB226
:1034400022F00F02C3F3420313432268D36000202B
:1034500038E0FFF78FFCDEE7FFF734FBDBE72048BF
:1034600002E0FFF775FCB0B3626A1E4B33F812300E
:10347000B0FBF3F0636800EB5300B0FBF3F0A0F196
:1034800010024FF6EF739A4227D8236880B2D860B3
:10349000002017E0FFF76EFCE5E7FFF713FBE2E71C
:1034A0004FF40040E0E701200CE001200AE0012099
:1034B00008E0012006E0012004E0002002E00120F5
:1034C00000E001200123A4F86A30A4F8683000234A
:1034D0006367A36770BD0020F4E70120F2E700BF37
:1034E0000024F40030A40008836A13F0080F06D00B
:1034F0000268536823F40043816B0B435360836A73
:1035000013F0010F06D00268536823F40033C16A38
:103510000B435360836A13F0020F06D002685368AE
:1035200023F48033016B0B435360836A13F0040F61
:1035300006D00268536823F48023416B0B43536029
:10354000836A13F0100F06D00268936823F4805347
:10355000C16B0B439360836A13F0200F06D002689F
:10356000936823F40053016C0B439360836A13F058
:10357000400F0AD00268536823F48013416C0B4358
:103580005360436CB3F5801F0BD0836A13F0800F38
:1035900006D00268536823F40023C16C0B435360C8
:1035A00070470268536823F4C003816C0B43536077
:1035B000EBE72DE9F84305460E4617469946DDF838
:1035C00020802B68DC6936EA04040CBF0124002447
:1035D000BC4236D1B8F1FF3FF3D0FEF729FEA0EB95
:1035E0000900404530D8B8F1000F2FD02B681A6879
:1035F00012F0040FE5D0802EE3D0402EE1D0DA693E
:1036000012F0080F11D1DA6912F4006FD9D04FF41B
:1036100000621A622846FFF77BFD2023C5F8903030
:10362000002385F8843003200CE008241C6228461F
:10363000FFF76EFDC5F89040002385F88430012027
:1036400000E00020BDE8F8830320FBE70320F9E752
:103650002DE9F04182B01E46D0F88830202B5AD197
:1036600004460D469046002959D00AB9012053E07E
:103670000023C0F890302123C0F88830FEF7D8FD31
:103680000746A4F85480A4F85680A368B3F5805F79
:1036900002D04FF0000816E0236943B34FF0000852
:1036A00011E02023C4F88830032035E038F8023BCD
:1036B0002268C3F308039362B4F8562092B2013A29
:1036C00092B2A4F85620B4F856309BB293B100964B
:1036D0003B46002280212046FFF76BFF0028E0D107
:1036E000002DE3D015F8012B23689A62E4E7A84681
:1036F0000025E8E700963B46002240212046FFF7E0
:1037000058FF18B92023C4F8883005E02023C4F8F6
:103710008830032000E0022002B0BDE8F0810120E3
:10372000FAE730B583B004460023C0F89030FEF7C6
:103730007FFD05462268126812F0080F10D1236839
:103740001B6813F0040F28D12023C4F88830C4F874
:103750008C300020E066206784F8840003B030BD20
:103760006FF07E430093034600224FF40011204681
:10377000FFF71FFF0028E2D0226852E8003F23F045
:10378000800342E800310029F6D12023C4F88830B4
:10379000002384F884300320E0E76FF07E43009339
:1037A0002B4600224FF480012046FFF702FF00283D
:1037B000CAD0226852E8003F23F4907342E80031F7
:1037C0000029F6D1226802F1080353E8003F23F0F4
:1037D0000103083242E800310029F3D12023C4F864
:1037E0008C30002384F884300320B7E778B310B519
:1037F0000446D0F888300BB32423C4F888302268FC
:10380000136823F001031360A36AE3B92046FFF7AE
:10381000ABFC012811D02268536823F49043536015
:103820002268936823F02A0393602268136843F0A8
:10383000010313602046FFF774FF10BD80F8843049
:10384000FFF791FCD8E72046FFF74EFEDEE70120A8
:103850007047000008B5034B03EBC000FEF76CFD9A
:1038600008BD00BFA008002010B582B00190084B31
:1038700018784FF47A73012201A94FF0940C054C8B
:103880000CFB0040FFF7E4FE019802B010BD00BF42
:10389000080800200C0800200D488546FDF716FD9D
:1038A0000C480D490D4A002302E0D458C45004339B
:1038B000C4188C42F9D30A4A0A4C002301E0136071
:1038C0000432A242FBD300F019FAFDF721FCFEE717
:1038D0000000022000000020E4060020A0A600084E
:1038E000E4060020BC0B0020FEE700000023014698
:1038F0001A46184600F046BA024A0349034800F047
:10390000C9B800BF0C0000203D670008200000205F
:103910000C4B4168994210B5044601D002F00EFFED
:10392000A168094B994202D0204602F007FFE168E6
:10393000064B994204D02046BDE8104002F0FEBE7E
:1039400010BD00BFA8080020100900207809002041
:103950002DE9F843314A324C3249DFF8DC90DFF888
:10396000DC80314F1160002504232946082204F130
:103970005C00C4E903352D4EA560C4E90055C4E9D7
:103980000555656600F012F904F15800C4E90749CD
:10399000C4E90987E66200F0EDF92946244B636724
:1039A000082204F1C400C4E91A55C4E91E5525676C
:1039B000C4F8CC50C4F8805000F0F8F804F1680363
:1039C00004F1C000C4F88430C4E92298C4E9247624
:1039D00000F0D0F9174BC4F8DC30294604F5967096
:1039E0000822C4E93455C4E93855C4F8D850C4F89D
:1039F0003451C4F8E85000F0D9F804F1D003C4E918
:103A00003D87C4F8F09004F59470C4F8FC60C4F8E5
:103A1000EC30BDE8F84300F0ADB900BFE00900208C
:103A2000A8080020F9380008813B0008A53B0008E1
:103A300009000100120002001D3B0008413B000884
:103A400010B504460A4800F099F9636B23B9094B95
:103A5000094A1B68626323B1BDE81040044800F0C6
:103A60008FB9FFF775FFBDE81040014800F088B935
:103A7000F0090020E009002011390008014800F099
:103A80007DB900BFF0090020014800F079B900BFFE
:103A9000F00900202DE9F8430746884616464FF006
:103AA0000009D6E90154013D10D4A389012B08D99E
:103AB000B4F90E3001332146384602D0C04749EAF6
:103AC0000009013D6B1C04F16804EED13668002E3C
:103AD000E7D14846BDE8F8830EB430B59CB06FF02E
:103AE00000411FAB049107910A4953F8042B02903F
:103AF00000240690084D0868019302A905951B94BF
:103B000000F0B6FD029B1C701CB0BDE8304003B055
:103B1000704700BF180000200802FFFF10B50C46D8
:103B2000B1F90E1000F0B8F8002803DB236D034450
:103B3000236510BDA38923F48053A38110BD00BF6A
:103B40002DE9F0410C46B1F90C101F46CB05054696
:103B500016460BD421F48051A1813B46B4F90E10D6
:103B600032462846BDE8F04100F0ACB8B4F90E107A
:103B70000223002200F07AF8B4F90C10EAE700BF43
:103B800010B50C46B1F90E1000F070F8B4F90C3015
:103B9000421C0EBF23F4805343F480532065A3815D
:103BA00010BD00BFB1F90E1000F04EB8830730B55C
:103BB00046D08418844604E003F8011B9D0704D016
:103BC0009C46A4456346F7D130BD013A0244A2EBBE
:103BD0000C02032A29D9CCB204EB04240F2A04EBEB
:103BE00004442FD9A2F1100C2CF00F0C03F1100596
:103BF000AC44C3E90044C3E9024410336345F8D13F
:103C000012F00C0F02F00F0E18D02EF0030C9C4493
:103C1000AEF104051A4642F8044B6245FBD125F08B
:103C2000030404330EF003022344002ACCD0C9B2AB
:103C30001A4403F8011B9342FBD130BD7246F4E7EE
:103C40000346C6E79646E0E738B5074D002204462E
:103C500008462A60FDF709FB431C00D038BD2B68DD
:103C6000002BFBD0236038BDE409002038B50D4699
:103C7000084C8446114628461A46002323606546B0
:103C8000FDF7FDFA431C00D038BD2368002BFBD0A4
:103C90002B6038BDE409002038B50D46084C844639
:103CA000114628461A46002323606546FDF7BFFAF1
:103CB000431C00D038BD2368002BFBD02B6038BDDF
:103CC000E409002038B50D46084C844611462846C4
:103CD0001A46002323606546FDF7B9FA431C00D05D
:103CE00038BD2368002BFBD02B6038BDE4090020D1
:103CF000014B1868704700BF1800002070B50F4BCB
:103D00000F4DAB42A3EB050607D0B610002455F8C3
:103D1000043B01349847A642F9D806F0CDFA094D84
:103D2000094B5E1BAB424FEAA60606D0002455F8AD
:103D3000043B01349847A642F9D870BD94A6000808
:103D400094A6000894A600089CA6000838B5074D64
:103D5000074C2C1BA41005D0013C55F8043D984796
:103D6000002CF9D1BDE8384006F0ACBAA0A6000896
:103D70009CA60008704700BF704700BF704700BF97
:103D8000704700BF2DE9F8431B4D0646286898464A
:103D90000F469146FFF7F2FF184B1C681CB32868CA
:103DA00065681F2D22DC4EB96B1C0235636044F838
:103DB0002570FFF7E5FF0020BDE8F88304EB8501DF
:103DC0000123C1F88890D4F88821AB401A43022E11
:103DD000C4F88821C1F80881E6D1D4F88C211A43AF
:103DE000C4F88C21E0E7064C1C60D8E7FFF7C8FF59
:103DF0004FF0FF30E0E700BF60010020840B00209F
:103E0000F4090020024B13B10248FFF76FBD704761
:103E1000000000004D3D00082DE9F843064608204B
:103E2000894602F0F9FDDFF8A4800546304600F02F
:103E300013FCD8F808305F6827F00307A7F11104D6
:103E4000A4EB09042C44B4FBF5F4013C05FB04F499
:103E5000A54208DC0021304602F0CCFDD8F808303D
:103E60003B44984205D0304600F0FCFB0020BDE802
:103E7000F8836142304602F0BDFD01300FD0114A97
:103E8000D8F808303F1B47F001075F6013683046E1
:103E90001B1B136000F0E6FB0120BDE8F883002146
:103EA000304602F0A7FDD8F80820831A0F2BDADD80
:103EB00043F001035360044B02491B68C01A0860B9
:103EC000D1E700BF880B00206401002070010020B2
:103ED00000295BD0F8B50C46074600F0BDFB54F84E
:103EE00004CC744DA4F108022CF00103D118A86889
:103EF0004E68884226F003060CF0010E7ED0881929
:103F00004E60406800F00100BEF1000F2FD154F860
:103F1000084C121B2344946805F1080C644562D0D8
:103F2000D2F80CE0C4F80CE0CEF8084000287FD0AE
:103F300043F0010050600B60B3F5007F2FD2D90829
:103F400068685C090131012309B2A34003436B6037
:103F500055F83100906005EBC103083BD36045F88C
:103F60003120C2603846BDE8F84000F07BBB70B934
:103F7000334405F1080C8868604543F0010471D0B2
:103F8000C968C16088605460D350D5E770474CF071
:103F90000101B3F5007F44F8041CD350CFD3B3F52F
:103FA000206F4FEA532045D2980900F1390109B238
:103FB00000F13804C900681869580838884203D1EC
:103FC00057E08968884204D04C6824F003049C427E
:103FD000F7D8C868C2E9021082603846CA60BDE8F6
:103FE000F84000F03FBB88BB1E44D1E90213CB6010
:103FF000996046F0010353609651B3E71E44BEF149
:10400000000F07D154F8083CD21A1E44D2E902131B
:10401000CB60996046F001035360274BAA601B6890
:10402000B3429FD8254B38461968FFF7F5FE99E74C
:104030003344A0E714280ED9542821D8180B00F1D6
:104040006F0109B200F16E04C900B4E743F001004A
:1040500050600B6086E700F15C0109B200F15B047F
:10406000C900A8E7C5E90422C2E902CC5460D350D4
:1040700078E76E68A4100123A34033436B60A9E77F
:10408000B0F5AA7F07D8D80B00F1780109B200F18A
:104090007704C9008FE740F25451884206D8980C43
:1040A00000F17D0100F17C04C90084E74FF47E71CA
:1040B0007E2480E77001002068010020B80B0020FA
:1040C0002DE9F04F01F10B05162D83B0064623D8DC
:1040D000102900F2B48000F0BFFA10251823022046
:1040E000B84F3B44A3F108025C68944200F064813D
:1040F0006368E268A16823F00303CA602344304682
:1041000091605A6842F001025A6000F0ABFA08343C
:10411000204603B0BDE8F08F35F0070500F18F8031
:10412000A94200F28C8000F097FAB5F5FC7FC0F050
:10413000B8815FEA552E00F08980BEF1040F00F2CD
:1041400070814FEA951E0EF1390003B20EF1380E60
:10415000DB009C4F3B44A3F1080C5C68A44507D1ED
:104160000DE0002AE16880F221818C4507D00C46E1
:10417000636823F003035A1B0F2AF2DD7046DFF851
:104180005C823C69444500F0FE80636823F0030CC8
:10419000ACEB05030F2B00F38981002BC7E90488E2
:1041A00080F27381BCF5007FD7F804E080F01881BD
:1041B0004FEADC03013319B24FEA5C1C012303FA16
:1041C0000CF357F83120A2604EEA030E07EBC1034F
:1041D000083BE360C7F804E047F83140D46083103F
:1041E0004FF0010C0CFA03FCF44535D81CEA0E0F15
:1041F00008D120F003004FEA4C0C1CEA0E0F00F12E
:104200000400F8D007EBC00AD6468146DEF80C3031
:104210000BE0596821F003014A1B0F2A1C46DB689A
:1042200000F30F81002A80F223819E45F1D109F12C
:10423000010919F0030F0EF1080EE7D161E10C231B
:1042400033600024204603B0BDE8F08F4FF40073C4
:1042500040204FF03F0E7CE7BC68636823F0030901
:10426000A94504D3A9EB05030F2B00F38F80564B10
:104270001B68082003F1100804EB0903009302F007
:10428000CBFB524A13680133A844834605D008F19A
:10429000FF388044434203EA08084146304602F0B2
:1042A000A9FBB0F1FF3F494A824600F01B8104EBB5
:1042B0000903834200F21481454B186840440BF116
:1042C000FF3C186000F072811168013100F07A81C2
:1042D00004EB0902AAEB020202441A601AF0070278
:1042E000CDE9002300F03281C2F108029244D044AB
:1042F00008EA0C015A44521A02EA0C0B594630469D
:1043000002F078FB421C019B00F07981A0EB0A00CF
:1043100000EB0B081868C7F808A048F001025844E1
:10432000BC42CAF80420186016D0B9F10F0F40F251
:104330004C816168A9F10C0222F0070201F0010131
:10434000114361604FF0050CA1180F2AC1E901CC9F
:1043500000F25D81DAF804201E4B1968814238BFF3
:1043600018601D4B1968814238BF1860544622F00E
:104370000308A845A8EB050301D30F2B06DC304644
:1043800000F070F95DE7D7F804E028E7621943F020
:10439000010345F0010565603046BA60536000F0E6
:1043A00061F90834204603B0BDE8F08FA2682344C9
:1043B000D16030468A60A4E6DC68A3427FF498AE00
:1043C0000230DCE670010020B80B00206401002000
:1043D000880B0020B40B0020B00B002078010020D7
:1043E000BCF5206F4FEA5C2272D3142A00F2C18020
:1043F00002F15C031BB25B32DB00F918FB58083991
:10440000994203D198E09B68994204D05A6822F0FF
:1044100003026245F7D8D968C4E902318C60DC60D8
:10442000DDE6BEF1140F60D9BEF1540F00F2AB808F
:104430004FEA153E0EF16F0003B20EF16E0EDB0077
:1044400087E6D4F808C03046661945F00105656076
:10445000CCF80C30C3F808C042F00103C7E9046689
:10446000C6E902887360625000F0FCF80834E9E69F
:10447000214430464A6842F001024A6054F8082F4D
:10448000D3609A6000F0EEF8DCE6A4443046DCF835
:10449000043043F00103CCF8043000F0E3F80834B2
:1044A000D0E6E808431C1BB2DB0019E6621943F0B2
:1044B000010145F0010565603046C7E90422C2E903
:1044C0000288516044F80C3000F0CCF80834B9E6AA
:1044D0004FEA9C1202F139031BB23832DB008CE741
:1044E000BC425CD0BC68626841E70EF15C0003B27C
:1044F0000EF15B0EDB002CE65AF80839534540F00C
:10450000A68010F0030F00F1FF30F5D17B6823EA9D
:104510000C037B604FEA4C0C9C453FF69DAEBCF112
:10452000000F04D198E64FEA4C0C09F104091CEA8B
:10453000030FF8D0484665E692104FF0010C0CFAD4
:1045400002F24EEA020EC7F804E065E70AEB080241
:1045500002EA0C02ABEB020202EA0C0B59463046AF
:1045600002F048FA431C019B7FF4D0AEDDF800B0A6
:10457000D0E6542A2DD84FEA1C3202F16F031BB249
:104580006E32DB0039E7BEF5AA7F2DD84FEAD53E63
:104590000EF1780003B20EF1770EDB00D9E52D4B5A
:1045A000186840440BF1FF3C18608DE61AEA0C0FC6
:1045B0007FF48AAED7F808A0C84448F00102CAF8D0
:1045C0000420C9E6C2F800A088E60123CAF8043036
:1045D000D5E6B2F5AA7F25D84FEADC3202F178039E
:1045E0001BB27732DB0008E740F254539E4524D8D3
:1045F000AB0C03F17D0003F17C0EC300A9E5009A2A
:10460000083A9044A8EB0A084FF0000B82E63046C7
:1046100004F108010093FFF75BFC009BD7F808A0AA
:10462000186897E640F254539A420CD84FEA9C42DD
:1046300002F17D03DB007C32DFE64FF47E737F20E6
:104640004FF07E0E85E54FF47E737E22D5E67B68C3
:1046500060E700BF880B00200148FFF78FBB00BF59
:10466000E80900200148FFF78BBB00BFE8090020E4
:104670002DE9F04FD3B00C46059192460C9307906C
:1046800002F0B4F9036814931846FBF719FEA389E6
:1046900013901D0603D52369002B01F0BE80002373
:1046A00056469E46CDE927339FED6F7B29AB269377
:1046B00099463378CDF854E0CDE917EE8DED107BB7
:1046C000CDF858E0CDF820E0CDF838E0002B00F030
:1046D0004D81354604E015F8013F002B00F08E8037
:1046E000252BF8D1AC1B40F08C802B78002B00F0F0
:1046F0003D8100234FF0FF3295F801808DF87B302B
:104700000693013504929A460135A8F120035A2BED
:1047100000F2AE80DFE813F03804AC00AC003204E5
:10472000AC00AC00AC001204AC00AC00A302BE02B2
:10473000AC00AE024A04AC0044045B005B005B00CA
:104740005B005B005B005B005B005B00AC00AC00EF
:10475000AC00AC00AC00AC00AC003601AC006802B0
:10476000A504360136013601AC00AC00AC00AC004B
:104770000C04AC00AC00BE03AC00AC00AC007C028E
:10478000AC006804AC00AC00EB07AC00AC00AC00C3
:10479000AC00AC00AC00AC00AC003601AC00680270
:1047A0007801360136013601C40278016D00AC0093
:1047B000E002AC00D102AB0380036D00AC007C02D0
:1047C0006A00ED02AC00AC005908AC006A00A8F128
:1047D0003003002215F8018B02EB820203EB420248
:1047E000A8F13003092BF5D906928EE795F80080E1
:1047F0008AE795F800804AF0200A85E7AC1B00F0B4
:10480000B580279A289B01322344072AC9E900640E
:104810002893279205DC09F10809089B2344089393
:1048200063E70599079826AA01F05CFF80B90DF1AE
:10483000A409F2E70599079826AA01F053FF00287A
:1048400000F08580099B1BB109990798FFF740FB91
:10485000059B9B895B0601F13A87089853B0BDE838
:10486000F08F00BFAFF300800000000000000000E8
:10487000B8F1000F7AD0002301228DF8E4808DF882
:104880007B3009930A92049312930F930D9339AEE0
:104890000392289C1AF08403A64600F0F5809DF848
:1048A0007B2022B32798002701300DF17B020134D1
:1048B000C9F8002007284FF00102CDE92704C9F804
:1048C000042000F3CD8409F1080987B1279801304D
:1048D0001FAA0234C9F8002007284FF00202CDE9D0
:1048E0002704C9F8042000F3AC8409F10809802BDF
:1048F00000F0D583049B0A9A9F1A002F00F3D580FD
:104900001AF4807F40F011810A9BC9F804301C44DE
:10491000279BC9F800600133072B2894279300F3E5
:10492000378409F108091AF0040F05D0069B039A91
:104930009E1A002E00F3A384089B069A03998A42CC
:10494000ACBF9B185B180893002C7FF473AF002357
:104950002793099B1BB109990798FFF7B9FA0DF145
:10496000A4092E463378002B7FF4B3AE289B002B8E
:104970003FF46EAF059C079826AA214601F0B2FECF
:10498000A38967E70C9B073323F00703B3EC027B93
:104990008DED107B0C93119B8DED1A7A23F0004363
:1049A0001B93DDE91A01B64B4FF0FF32FCF7E4F937
:1049B000002840F02586DDE91A01B14B4FF0FF32A7
:1049C000FCF7BCF90446002840F01A86DDE9100126
:1049D000002200232AF0800AFCF7A6F9002841F003
:1049E00075819DF87B30B8F1470FCCBFA54EA64E20
:1049F000002B41F0C385032209930A92049312937A
:104A00000F930D93039244E71AF0200F00F0E68510
:104A10000C9B073323F007031A465B6852F8084BD8
:104A20000C921F46002BC0F22D83049A002A05DB4E
:104A300054EA07032AF0800A00F0D8860A2C77F19E
:104A4000000380F0768104F13003DBB2049A8DF824
:104A50004731012AB8BF012203929DF87B30012221
:104A60000A920DF24716002B00F0F480039B289C5D
:104A7000013303930023099312930F930D931AF0BC
:104A80008403A6467FF40BAF069A0398171A002FEB
:104A900000F3F7849DF87B20002A7FF403AF049B8A
:104AA0000A9A9F1A002F7FF72BAF102F279ADFF853
:104AB000DCB129DD494620460495079C059D10235D
:104AC000B14604E0103F102F01F1080118DD01325A
:104AD0006E4E1030072AC1E90063CDE92720F1DDD1
:104AE00026AA2946204601F0FDFD00287FF4AAAE43
:104AF000103F102FDDE9272029A94FF01003E6DC35
:104B0000049D4E460446894601323C44072ACDE9BD
:104B10002724C9F800B0C9F8047000F326851AF4F8
:104B2000807F09F108093FF4EFAEB8F1650F40F35B
:104B30003C83DDE9100100220023FCF7EBF800289C
:104B400000F0DE83279B524AC9F80020013301346C
:104B50000122072B28942793C9F8042000F3B68775
:104B600009F10809209B0E9A934280F22585139B38
:104B7000149A1C44C9E90023279B28940133072B6E
:104B8000279300F33D8609F108090E9B5E1E002E57
:104B90007FF7C9AE102E279BDFF8F0B040F3A78750
:104BA00059462246AB46DDF81C80059C10270D4671
:104BB00005E009F10809103E102E40F394870133F7
:104BC0001032072BC9E90057CDE92732F1DD26AABB
:104BD0002146404601F086FD00287FF433AEDDE932
:104BE00027320DF1A409E6E70C9B002210460121B3
:104BF0008DF87B20099253F8042B8DF8E4200C9358
:104C00000A91049012900F900D9039AE039140E6F6
:104C10000C9C049B54F8046B00278DF87B70002ECD
:104C200000F0AE87002BC0F207861A4639463046A0
:104C3000FBF7E6FA9DF87B300990002801F04E83DF
:104C4000821B0A9222EAE2720392002B40F0008655
:104C500004930C94099312930F930D9319E60C9BF4
:104C600053F8042B0692002A80F2AC84069A0C9327
:104C70005242069295F800804AF0040A44E500BFCB
:104C8000FFFFEF7FDCA20008D8A2000848A40008BC
:104C900018A300082B2395F800808DF87B3033E5AE
:104CA00095F80080B8F1680F03BF95F801804AF4C9
:104CB000007A01354AF0400A26E50C9A1AF0200FD6
:104CC00002F1040300F00185126808991160C91708
:104CD00051600C932E4645E695F80080B8F16C0FB4
:104CE00003BF95F801804AF0200A01354AF0100A06
:104CF0000AE51AF0200F40F092810C9A1AF0100782
:104D000052F8043B41F040831AF0400100F0A387C1
:104D10009CB2049B8DF87B70002B04DB2AF0800A88
:104D2000002C00F077810A2C77F100030C92FFF43D
:104D30008AAE0AF480630022CDE909980395DFF872
:104D4000D0B6DDF85C8052A996461D4623E0E319F3
:104D500043F10003ABFB032020F0030202EB9002BF
:104D60009B1AE31A4FF0CC32A146BC4602FB03F279
:104D700067F100070BFB0722A3FB0B43B9F10A0FF6
:104D800013444FEA54047CF1000C314644EAC374E6
:104D90004FEA53072BD3E31943F10003ABFB032086
:104DA00020F0030202EB90029B1AE31AA3FB0B32E2
:104DB00067F100005B080BFB002243EAC27303EBC0
:104DC0008303A4EB430330330EF1010E01F8013CE1
:104DD0004E1E002DBBD098F800307345B7D1BEF100
:104DE000FF0FB4D00A2C77F1000380F08C8752AB10
:104DF0000499039DCDF85C809B1B1A469142B8BF75
:104E00001146DDF82880DDF824900A93CDF838E0CB
:104E10009DF87B30039126E60C9A049E52F8040B11
:104E2000002147F630038E42ADF87C308DF87B10C0
:104E30000346C0F2D0842AF0800444F0020A00281D
:104E400040F09686002E00F0B5870C9230230122A8
:104E500003960F908DF847310A924FF078080DF2C3
:104E600047160D9012908446099000F096BC1AF0F7
:104E7000200F40F027840C9A1AF0100152F8043BDE
:104E800041F093821AF0400000F0DC869BB20C9255
:104E900050460EE01AF0200F4AF0100000F00A848D
:104EA0000C9B073323F007031A46596852F8083B56
:104EB0000C9200228DF87B20049A002A17DB53EA1B
:104EC000010220F4906A14D1049A92B910F0010200
:104ED000039200F0E28530238DF84731049B0A925B
:104EE00012930F930D9309930DF24716D1E420F41A
:104EF000806A52AE03F00702DB0843EA4173C90837
:104F0000303253EA0104304606F8012DF2D11AF08E
:104F100001030D9340F09D820499129352AA921BB3
:104F20009142B8BF11460A9203910F930993B0E4DE
:104F300095F800804AF0080AFFF7E6BB079F38465D
:104F400001F054FD436816931846FBF7B9F9189021
:104F50000446384601F04AFD836895F800801793AF
:104F6000002C3FF4D1AB002B3FF4CEAB1B78002BD1
:104F70003FF4CAAB4AF4806AFFF7C6BB95F80080DD
:104F80004AF0010AFFF7C0BB9DF87B3095F800801E
:104F9000002B7FF4B9AB20238DF87B30FFF7B4BB37
:104FA00095F800804AF0800AFFF7AEBB294611F859
:104FB000018BB8F12A0F01F06183A8F13003092BAE
:104FC00098BF002201F2998111F8018B02EB820255
:104FD00003EB4202A8F13003092BF5D942EAE27350
:104FE00004930D46FFF791BB1AF0200F4AF0100111
:104FF00016D10C9B1A1D0C9B04981B680027B84205
:105000008DF87B701C46C0F2E28321F0800A002BF1
:105010007FF489AE049B0C92DBB1002413E551466A
:105020000C9B073323F007031A465F6852F8084BBE
:105030000C9200238DF87B30049B002BC0F2C883B8
:1050400054EA070321F0800A7FF4F8AC049B002B9C
:10505000E3D10A9312930F930D930393099352AEE6
:1050600017E41AF0200F4AF0100340F0B4820C9AB3
:1050700004320C990C920C68E7179A463B46002BB9
:10508000BFF6D3AC2D238DF87B30049B644267EBD5
:105090004707002BFFF6D2AC2AF0800ACEE4069B2D
:1050A000039A9F1A002F7FF725AC102F279ADFF85D
:1050B00064B32BDD49462046B1465C462E46DDF8FA
:1050C0001CB0059D102304E0103F102F01F10801D2
:1050D00017DD01321030072AC1E90043CDE927204E
:1050E000F2DD26AA2946584601F0FCFA00287FF492
:1050F000A9AB103F102FDDE9272029A94FF010039D
:10510000E7DC3546A3464E460446894601323C4418
:10511000072ACDE92724C9F800B0C9F8047000F3C4
:10512000108509F10809FFF7E5BB279BB74AC9F8C5
:105130000020013301340122072B28942793C9F85A
:10514000042000F3268609F10809002940F0408573
:105150000E9A0AF0010313433FF4E5AB139B149935
:105160001A19C9E90013279B28920133072B2793AB
:1051700000F39C8609F108090E99C9F80060013313
:105180008C18072BCDE92734C9F804107FF7C9AB79
:105190000599079826AA01F0A5FA00287FF452ABDA
:1051A000289C0DF1A409FFF7BEBB0E9B279F012B86
:1051B00004F1010407F1010709F1080840F32E8109
:1051C0000123072FCDE92774C9F80060C9F804301E
:1051D00000F3D881139B149A01371C44072FC8E9A8
:1051E0000023CDE9277400F3DA8108F108080E9B4B
:1051F000DDE9100103F1FF3900220023FBF78AFDEE
:10520000002840F08581013701364C44072FCDE955
:105210002774C8F80060C8F8049000F30D8108F105
:105220000808159BC8F8043001371C44072F22AB2F
:10523000CDE92774C8F80030AADC08F10809FFF7A7
:1052400072BB05990798199326AA01F04BFA00281A
:105250007FF4F8AA289C199B0DF1A409FFF747BB1E
:1052600005990798199326AA01F03CFA00287FF4C3
:10527000E9AA289C199B0DF1A409FFF726BB102E63
:10528000279BDFF894B127DD5A46DDF81C80DDF856
:1052900014A0AB461027154604E0103E102E09F16D
:1052A000080916DD01331034072BC9E90057CDE991
:1052B0002734F2DD26AA5146404601F013FA0028B1
:1052C0007FF4C0AA103E102EDDE927340DF1A409A9
:1052D000E8DC2A465D46934601333444072BC9E98E
:1052E00000B6CDE927347FF727AB0599079826AAA2
:1052F00001F0F8F900287FF4A5AA289CFFF71CBB51
:10530000209900297FF711AFDDE90D329342A8BF44
:105310001346002B98460BDD1C44C9E90063279B0C
:1053200028940133072B279300F3698609F10809B4
:105330000D9FB8F1000FA8BFA7EB0807002F00F3DF
:105340008D820D9B1AF4806F33449B4640F0AF82F0
:10535000209A0E9B9A4203DB1AF0010F00F037856A
:10536000139B14991C44C9E90013279B289401330B
:10537000072B279300F3678709F108090E9BF7189D
:10538000A7EB0B079E1AB742A8BF3746002F0DDDCB
:10539000279BC9F800B001333C44072BC9F80470BF
:1053A0002894279300F3B38709F10809002FA8BFB9
:1053B000F61B002E7FF7B7AA102E279BDFF854B0FC
:1053C00040F3958359462246AB46DDF81C80059C88
:1053D00010270D4605E009F10809103E102E40F394
:1053E000828301331032072BC9E90057CDE92732F8
:1053F000F1DD26AA2146404601F074F900287FF429
:1054000021AADDE927320DF1A409E6E718A3000877
:10541000CDCCCCCC48A4000858A400081AF0010F49
:105420007FF4CEAE0123072FCDE92774C9F80060C1
:10543000C9F804307FF7F5AE0599079826AA01F060
:1054400051F900287FF4FEA9DDE927740DF1A408C5
:10545000E7E6302A00F058833023049906F8013C2F
:10546000023852AB1B1A99424FF00002B8BF1946DE
:1054700009920A930646039112920F920D92FFF73A
:1054800008BA279ADFF854B5102F714629DD19950F
:1054900048465D46C146B3461024079E984604E040
:1054A000103F102F00F1080015DD01321031072ADE
:1054B000C0E90054CDE92721F2DD059926AA30463E
:1054C00001F010F900287FF4BDA9103F102FDDE98D
:1054D000272129A8E9DC5E46AB46199D4346C8460C
:1054E0008146501C7C180728CDE92704C9F800B074
:1054F000C9F8047000F3BA829DF87B2009F108090D
:10550000002A64D1002B3FF4F5A91346FFF7DFB959
:105510000E9B012B7FF785AE112BDFF8BCB440F357
:105520004B83224610265C46D346AA46059D07E0DB
:1055300008F10808A9F11009B9F1100F40F33883F8
:1055400001371032072FC8E90046CDE92772EFDD99
:10555000079826AA294601F0C5F800287FF472A909
:10556000DDE927720DF1A408E4E70599079826AA5A
:1055700001F0B8F800287FF465A9289C0DF1A40972
:10558000FFF7BEB90599079826AA01F0ABF80028E5
:105590007FF458A9DDE927740DF1A4081AE60599EE
:1055A000079826AA01F09EF800287FF44BA9DDE9B0
:1055B00027740DF1A4081AE61AF0010F3FF4B3A9FD
:1055C000FFF7D5BA95F800800C93FFF79DB81F46FA
:1055D0000023FFF769B99A46FFF71ABA0C9A1AF036
:1055E000100F52F8044B40F0DD861AF0400F0C9279
:1055F00000F0488344F3C0373B4624B2FFF712BAA9
:10560000DDE9100102460B46FBF7B6FB8346002896
:1056100040F05987B8F1610F00F0FE84B8F1410FF6
:1056200000F08586049B013300F04E84B8F1670FCB
:10563000119B4AF4807700F0F386B8F1470F00F031
:10564000EF860990DDE91012002AC0F2B1869DEDC7
:10565000107B8DED1C7B4FF0000BA8F14103252B37
:1056600000F2C283DFE813F00007C003C003C003E9
:105670004404AF04C003C003C003C003C003C0039D
:10568000C003C003C003C003C003C003C003C00302
:10569000C003C003C003C003C003C003C003C003F2
:1056A000C003C003C003C0030007C003C003C0039E
:1056B0004404AF040C9B1A1D0C9B0C921B68002128
:1056C000FFF7F7BB5046FFF7EBBB1AF0100F40F0A7
:1056D00045821AF0400F40F0D5831AF4007F00F0A5
:1056E0003D820C9A089912681170FFF7F2BAB84C13
:1056F0000C9A1AF0200100F09681073222F007027E
:10570000516852F8083B1AF0010000F0698153EA31
:10571000010000F0CB8130208DF87C0000208DF856
:105720007B0004988DF87D800028C0F294812AF4D3
:10573000906040F0020A03F00F00265C0AF00200BD
:105740000C921B0943EA01730A0953EA11118DF8FF
:1057500047610DF247160BD003F00F011B09615C86
:1057600006F8011D43EA0273120953EA0201F3D15C
:10577000049A52AB9B1B9A424FF0000CB8BF1A46DA
:105780000A930392CDF824C0CDF848C0CDF83CC0B0
:10579000CDF834C000283FF47CA8039BDDE9270442
:1057A000023303931AF08403A646024604D1069FEF
:1057B00003997F1A002F06DCBCF1000F3FF487A885
:1057C0000227FFF771B802235CE6824C90E70C9247
:1057D0008A46FFF733B97F4C0C9200F00F024AF073
:1057E000020AA65C02204FF07808AAE7002A40F0DF
:1057F000DE829DF87B3003920A9252AEFFF733B9F6
:105800000599079826AA00F06DFF00287FF41AA8D2
:10581000289C0DF1A409FFF7B8B907984021FEF7BD
:105820004FFC059B18601861002800F04D87059A11
:1058300040235361FEF733BF3046FAF741FD9DF830
:105840007B300A9020EAE0720392002B3FF400AA1A
:1058500001323B4604970392FFF7FBB9102F279BB9
:10586000DFF874B140F323824A462146B146079CD3
:105870005E464FF01008AB46059D04E00832103F2D
:10588000102F40F30F8201331031072BC2E900685B
:10589000CDE92731F2DD26AA2946204600F022FF75
:1058A00000287EF4CFAFDDE9273129AAE7E70E9B78
:1058B000DDF84880CDF864A0F31804930F9BDDF861
:1058C0005CA00D95002B5F464A462146DDF81CB0D2
:1058D000189CDDF81490129631DDB8F1000F40F3FA
:1058E000EF8008F1FF382798169B013021440728E4
:1058F000C2E900342891279000F3A2800832049B6B
:105900009AF80000DE1B8642A8BF0646002E0CDD7A
:105910002798013031440728C2E900762891279062
:1059200000F302819AF800000832002EACBF851BFC
:105930000546002D15DC07440F9B002BCDDCB8F18C
:10594000000FCEDC129E0E9BCDF85CA0F3189F4298
:10595000BB460D9DDDF864A091460C4628BF9B46D2
:10596000F6E4102D27981C4B23DD0A9410262C46B4
:105970001D4604E0103C102C02F1080216DD013037
:10598000154B10310728C2E90036CDE92701F1DDBA
:1059900026AA4946584600F0A5FE00287EF452AFDC
:1059A000103C102CDDE9270129AAE8DC2B4625460E
:1059B0000A9C1360013029440728CDE9270155606E
:1059C00000F30F839AF8000008320744B4E700BFE1
:1059D000FCA20008E8A2000848A4000858A4000897
:1059E0008DF87B000498002837DB53EA01002AF485
:1059F000906A7FF4A0AE0499002900F0B580237866
:105A00008DF8473101294FF000030C92B8BF0121F6
:105A10000122099303910A9212930F930D930DF2B1
:105A20004716FEF736BF1AF0100052F8043B7FF419
:105A30006AAE1AF0400600F02F819BB2014662E682
:105A400026AA4946584600F04DFE00287EF4FAAEDC
:105A5000289929AA53E74AF0020A0C9203F00F0290
:105A60000AF00200A65C2AF4806A6AE605990798A3
:105A7000199326AA00F036FE00287EF4E3AE9DF8C6
:105A80007B20289C199B002A00F089801F460DF17D
:105A9000A40903462798FEF707BF049B0A931293B5
:105AA0000F930D93099352AEFEF7F3BE049B0020B3
:105AB00083428DF87B00C0F21D812AF4906A9AE738
:105AC0000F9B013B0AF1FF3A0F930CE705990798EA
:105AD00026AA00F007FE00287EF4B4AE289C0DF143
:105AE000A409FFF73FB814462A465D4693460133A2
:105AF0003444072BC9F800B0C9F80460CDE9273455
